{
  "transactions": [
    {
      "hash": "0x4bf6a4666450b8675f108a0dd888367d15d44f0e1b8bfb0baaac55e820ecb965",
      "transactionType": "CALL",
      "contractName": null,
      "contractAddress": "0x8819a7972e17c61a4eefe0f06e4bbef521228c82",
      "function": "approve(address,uint256)",
      "arguments": [
        "0x713d8C2f1983848eDFe2F1f3730d9Ff74aBa4b7f",
        "100000000000000000000"
      ],
      "transaction": {
        "from": "0x253a399b2a63b400f1e7f06f83fbcc0f1236f62f",
        "to": "0x8819a7972e17c61a4eefe0f06e4bbef521228c82",
        "gas": "0x108f4",
        "value": "0x0",
        "input": "0x095ea7b3000000000000000000000000713d8c2f1983848edfe2f1f3730d9ff74aba4b7f0000000000000000000000000000000000000000000000056bc75e2d63100000",
        "nonce": "0x25",
        "chainId": "0xc4"
      },
      "additionalContracts": [],
      "isFixedGasLimit": false
    },
    {
      "hash": "0xdf6b0e563d824757292b97d57b2c97838f047f80f4c9e0ff5f9600924535261c",
      "transactionType": "CALL",
      "contractName": null,
      "contractAddress": "0x713d8c2f1983848edfe2f1f3730d9ff74aba4b7f",
      "function": "registerPublisher(uint256)",
      "arguments": [
        "100000000000000000000"
      ],
      "transaction": {
        "from": "0x253a399b2a63b400f1e7f06f83fbcc0f1236f62f",
        "to": "0x713d8c2f1983848edfe2f1f3730d9ff74aba4b7f",
        "gas": "0x3e360",
        "value": "0x0",
        "input": "0xad71b5560000000000000000000000000000000000000000000000056bc75e2d63100000",
        "nonce": "0x26",
        "chainId": "0xc4"
      },
      "additionalContracts": [],
      "isFixedGasLimit": false
    },
    {
      "hash": "0x19c8b6e6e691301dd5e722e11dac8d40eaf4618529a701e69ea0be3cd170d28d",
      "transactionType": "CALL",
      "contractName": null,
      "contractAddress": "0x713d8c2f1983848edfe2f1f3730d9ff74aba4b7f",
      "function": "publishSignal((bytes32,bytes32,uint256,uint256,uint256,uint256,uint24,uint64,address))",
      "arguments": [
        "(0xf925cb455b0d9eeadda90078ab85fcf3f96805f22400cc22cec8c5eea3009c0b, 0x04e9effc458bfd24b03b19aa526dbccee03b83001dcee5895aa12bdb7deeb57d, 42, 81, 90, 55, 2000, 1779554087, 0x253a399B2A63b400f1e7f06f83Fbcc0F1236f62f)"
      ],
      "transaction": {
        "from": "0x253a399b2a63b400f1e7f06f83fbcc0f1236f62f",
        "to": "0x713d8c2f1983848edfe2f1f3730d9ff74aba4b7f",
        "gas": "0x7467b",
        "value": "0x0",
        "input": "0xbef3c280f925cb455b0d9eeadda90078ab85fcf3f96805f22400cc22cec8c5eea3009c0b04e9effc458bfd24b03b19aa526dbccee03b83001dcee5895aa12bdb7deeb57d000000000000000000000000000000000000000000000000000000000000002a0000000000000000000000000000000000000000000000000000000000000051000000000000000000000000000000000000000000000000000000000000005a000000000000000000000000000000000000000000000000000000000000003700000000000000000000000000000000000000000000000000000000000007d0000000000000000000000000000000000000000000000000000000006a11d727000000000000000000000000253a399b2a63b400f1e7f06f83fbcc0f1236f62f",
        "nonce": "0x27",
        "chainId": "0xc4"
      },
      "additionalContracts": [],
      "isFixedGasLimit": false
    },
    {
      "hash": "0x1b9baca036d3a2ac4b6ef8658cb32bb7cb962ed225c7d59266e3a8af4a2146bc",
      "transactionType": "CALL",
      "contractName": null,
      "contractAddress": "0x713d8c2f1983848edfe2f1f3730d9ff74aba4b7f",
      "function": "publishSignal((bytes32,bytes32,uint256,uint256,uint256,uint256,uint24,uint64,address))",
      "arguments": [
        "(0x5e6ee8544ba76dd67fa069c1f6ca8ee9d5d30090d6429cee48c97d0b9a454b8d, 0x6d79dfd7f52ea40736f8d2a62e9335c23fd9d6a0032de76283f5e8d646cfb759, 28, 55, 95, 30, 1500, 1779554087, 0x253a399B2A63b400f1e7f06f83Fbcc0F1236f62f)"
      ],
      "transaction": {
        "from": "0x253a399b2a63b400f1e7f06f83fbcc0f1236f62f",
        "to": "0x713d8c2f1983848edfe2f1f3730d9ff74aba4b7f",
        "gas": "0x6ea6a",
        "value": "0x0",
        "input": "0xbef3c2805e6ee8544ba76dd67fa069c1f6ca8ee9d5d30090d6429cee48c97d0b9a454b8d6d79dfd7f52ea40736f8d2a62e9335c23fd9d6a0032de76283f5e8d646cfb759000000000000000000000000000000000000000000000000000000000000001c0000000000000000000000000000000000000000000000000000000000000037000000000000000000000000000000000000000000000000000000000000005f000000000000000000000000000000000000000000000000000000000000001e00000000000000000000000000000000000000000000000000000000000005dc000000000000000000000000000000000000000000000000000000006a11d727000000000000000000000000253a399b2a63b400f1e7f06f83fbcc0f1236f62f",
        "nonce": "0x28",
        "chainId": "0xc4"
      },
      "additionalContracts": [],
      "isFixedGasLimit": false
    },
    {
      "hash": "0x5e8b657d3341802aba0c8b6e324902d0f8a73db9731e083fe8321055bf0ebd3d",
      "transactionType": "CALL",
      "contractName": null,
      "contractAddress": "0x713d8c2f1983848edfe2f1f3730d9ff74aba4b7f",
      "function": "publishSignal((bytes32,bytes32,uint256,uint256,uint256,uint256,uint24,uint64,address))",
      "arguments": [
        "(0x371179826b6d58ab586088417d8038d6ab668952576a6168747e86003a077753, 0x86e8639d2a670d6062c5d18de278e9d7b27ebda30c6fa60b662c743adec6d043, 72, 35, 60, 85, 7500, 1779554087, 0x253a399B2A63b400f1e7f06f83Fbcc0F1236f62f)"
      ],
      "transaction": {
        "from": "0x253a399b2a63b400f1e7f06f83fbcc0f1236f62f",
        "to": "0x713d8c2f1983848edfe2f1f3730d9ff74aba4b7f",
        "gas": "0x6ea6a",
        "value": "0x0",
        "input": "0xbef3c280371179826b6d58ab586088417d8038d6ab668952576a6168747e86003a07775386e8639d2a670d6062c5d18de278e9d7b27ebda30c6fa60b662c743adec6d04300000000000000000000000000000000000000000000000000000000000000480000000000000000000000000000000000000000000000000000000000000023000000000000000000000000000000000000000000000000000000000000003c00000000000000000000000000000000000000000000000000000000000000550000000000000000000000000000000000000000000000000000000000001d4c000000000000000000000000000000000000000000000000000000006a11d727000000000000000000000000253a399b2a63b400f1e7f06f83fbcc0f1236f62f",
        "nonce": "0x29",
        "chainId": "0xc4"
      },
      "additionalContracts": [],
      "isFixedGasLimit": false
    },
    {
      "hash": "0xcb8a88a06313e746fd383c3bf9c2d0904469f5009df204f43bfe1940e1f7925e",
      "transactionType": "CALL",
      "contractName": null,
      "contractAddress": "0x713d8c2f1983848edfe2f1f3730d9ff74aba4b7f",
      "function": "publishSignal((bytes32,bytes32,uint256,uint256,uint256,uint256,uint24,uint64,address))",
      "arguments": [
        "(0x727ca50ff44425442cde1a2494b484883986aeb25e743e5ca2879299522e1cd0, 0x26557499cc8c660efebddad4483b540493bdcc7c0c6b208a3b3c6ef6a56b5ae3, 30, 78, 70, 40, 2000, 1779554087, 0x253a399B2A63b400f1e7f06f83Fbcc0F1236f62f)"
      ],
      "transaction": {
        "from": "0x253a399b2a63b400f1e7f06f83fbcc0f1236f62f",
        "to": "0x713d8c2f1983848edfe2f1f3730d9ff74aba4b7f",
        "gas": "0x6ea7a",
        "value": "0x0",
        "input": "0xbef3c280727ca50ff44425442cde1a2494b484883986aeb25e743e5ca2879299522e1cd026557499cc8c660efebddad4483b540493bdcc7c0c6b208a3b3c6ef6a56b5ae3000000000000000000000000000000000000000000000000000000000000001e000000000000000000000000000000000000000000000000000000000000004e0000000000000000000000000000000000000000000000000000000000000046000000000000000000000000000000000000000000000000000000000000002800000000000000000000000000000000000000000000000000000000000007d0000000000000000000000000000000000000000000000000000000006a11d727000000000000000000000000253a399b2a63b400f1e7f06f83fbcc0f1236f62f",
        "nonce": "0x2a",
        "chainId": "0xc4"
      },
      "additionalContracts": [],
      "isFixedGasLimit": false
    }
  ],
  "receipts": [
    {
      "type": "0x0",
      "status": "0x1",
      "cumulativeGasUsed": "0x48b32",
      "logs": [
        {
          "address": "0x8819a7972e17c61a4eefe0f06e4bbef521228c82",
          "topics": [
            "0x8c5be1e5ebec7d5bd14f71427d1e84f3dd0314c0f7b2291e5b200ac8c7c3b925",
            "0x000000000000000000000000253a399b2a63b400f1e7f06f83fbcc0f1236f62f",
            "0x000000000000000000000000713d8c2f1983848edfe2f1f3730d9ff74aba4b7f"
          ],
          "data": "0x0000000000000000000000000000000000000000000000056bc75e2d63100000",
          "blockHash": "0x2d01fb958dc9798251da423a7ce73dd368720eb5d60e7f5d50f8151935ebbbce",
          "blockNumber": "0x39f65ad",
          "blockTimestamp": "0x6a11bb39",
          "transactionHash": "0xdf6b0e563d824757292b97d57b2c97838f047f80f4c9e0ff5f9600924535261c",
          "transactionIndex": "0x2",
          "logIndex": "0xc",
          "removed": false
        }
      ],
      "logsBloom": "0x00000000000000000000000000000000000000000000000400000000000000000000000000000000000000000000000000000000000010000000000000200000000000000000000000000000000000000000000000000000000000000000000000000000000000000000000000000000000000000000000000000000000000000000000000000000000000000000000000000000000000000000000000000000020080000000000000000000000010000000000000000000000000000000000000000000000000000000000800040000000000000000000000000000000000000010000000000000000000000108000000000000200000000000000000000000",
      "transactionHash": "0xdf6b0e563d824757292b97d57b2c97838f047f80f4c9e0ff5f9600924535261c",
      "transactionIndex": "0x2",
      "blockHash": "0x2d01fb958dc9798251da423a7ce73dd368720eb5d60e7f5d50f8151935ebbbce",
      "blockNumber": "0x39f65ad",
      "gasUsed": "0xb52b",
      "effectiveGasPrice": "0x1312d01",
      "blobGasUsed": "0x9c40",
      "from": "0x253a399b2a63b400f1e7f06f83fbcc0f1236f62f",
      "to": "0x8819a7972e17c61a4eefe0f06e4bbef521228c82",
      "contractAddress": null
    },
    {
      "type": "0x0",
      "status": "0x1",
      "cumulativeGasUsed": "0x733cc",
      "logs": [
        {
          "address": "0x8819a7972e17c61a4eefe0f06e4bbef521228c82",
          "topics": [
            "0xddf252ad1be2c89b69c2b068fc378daa952ba7f163c4a11628f55a4df523b3ef",
            "0x000000000000000000000000253a399b2a63b400f1e7f06f83fbcc0f1236f62f",
            "0x000000000000000000000000713d8c2f1983848edfe2f1f3730d9ff74aba4b7f"
          ],
          "data": "0x0000000000000000000000000000000000000000000000056bc75e2d63100000",
          "blockHash": "0x2d01fb958dc9798251da423a7ce73dd368720eb5d60e7f5d50f8151935ebbbce",
          "blockNumber": "0x39f65ad",
          "blockTimestamp": "0x6a11bb39",
          "transactionHash": "0x4bf6a4666450b8675f108a0dd888367d15d44f0e1b8bfb0baaac55e820ecb965",
          "transactionIndex": "0x3",
          "logIndex": "0xd",
          "removed": false
        },
        {
          "address": "0x713d8c2f1983848edfe2f1f3730d9ff74aba4b7f",
          "topics": [
            "0x466d40d3c5afb07f32aa87fa68d587f144c6fee2dfb883b3363937d5427e0442",
            "0x000000000000000000000000253a399b2a63b400f1e7f06f83fbcc0f1236f62f"
          ],
          "data": "0x",
          "blockHash": "0x2d01fb958dc9798251da423a7ce73dd368720eb5d60e7f5d50f8151935ebbbce",
          "blockNumber": "0x39f65ad",
          "blockTimestamp": "0x6a11bb39",
          "transactionHash": "0x4bf6a4666450b8675f108a0dd888367d15d44f0e1b8bfb0baaac55e820ecb965",
          "transactionIndex": "0x3",
          "logIndex": "0xe",
          "removed": false
        }
      ],
      "logsBloom": "0x00000000000000000000000000000000000000000000000400000000008000000000000004000000000000000000000000000000000010000000000000000000000000000000000000000008000000000000000000000000000000000000000000000000000000000000000000800000000000000000000000000010000000000000000000000000000000000000000000000000000000000000000000000000000080000000000000000000000010000000000000800000000000000000000000000002000000000000000800040010000000000000000000000000000000800000000000000000000000000108000000000000200000000000000000000000",
      "transactionHash": "0x4bf6a4666450b8675f108a0dd888367d15d44f0e1b8bfb0baaac55e820ecb965",
      "transactionIndex": "0x3",
      "blockHash": "0x2d01fb958dc9798251da423a7ce73dd368720eb5d60e7f5d50f8151935ebbbce",
      "blockNumber": "0x39f65ad",
      "gasUsed": "0x2a89a",
      "effectiveGasPrice": "0x1312d01",
      "blobGasUsed": "0x9c40",
      "from": "0x253a399b2a63b400f1e7f06f83fbcc0f1236f62f",
      "to": "0x713d8c2f1983848edfe2f1f3730d9ff74aba4b7f",
      "contractAddress": null
    },
    {
      "type": "0x0",
      "status": "0x1",
      "cumulativeGasUsed": "0xc7834",
      "logs": [
        {
          "address": "0x713d8c2f1983848edfe2f1f3730d9ff74aba4b7f",
          "topics": [
            "0x0face291eef5c87612364bee04388acc5d3b3fdd67696755ef1354fd31145622",
            "0xf925cb455b0d9eeadda90078ab85fcf3f96805f22400cc22cec8c5eea3009c0b",
            "0x04e9effc458bfd24b03b19aa526dbccee03b83001dcee5895aa12bdb7deeb57d"
          ],
          "data": "0x000000000000000000000000000000000000000000000000000000000000002a000000000000000000000000000000000000000000000000000000000000005100000000000000000000000000000000000000000000000000000000000007d0000000000000000000000000253a399b2a63b400f1e7f06f83fbcc0f1236f62f",
          "blockHash": "0x2d01fb958dc9798251da423a7ce73dd368720eb5d60e7f5d50f8151935ebbbce",
          "blockNumber": "0x39f65ad",
          "blockTimestamp": "0x6a11bb39",
          "transactionHash": "0x1b9baca036d3a2ac4b6ef8658cb32bb7cb962ed225c7d59266e3a8af4a2146bc",
          "transactionIndex": "0x4",
          "logIndex": "0xf",
          "removed": false
        }
      ],
      "logsBloom": "0x00000000000000000000000000000000000000000000000000000000008000000000004000000000000000000000000000000000000000000000000000000000000000000000000000000000000000000000000000000004000200000000000000000000000040010000000000080000000000000000000000000000000000000000000000000000000000000000000000000000000000000000000000000000000000000004000000000000000000000000000000000000000000000000000000000000000000000000000000000010000000000000000000000000000000800000020000000000000000000000000200000000000000000000000000000000",
      "transactionHash": "0x1b9baca036d3a2ac4b6ef8658cb32bb7cb962ed225c7d59266e3a8af4a2146bc",
      "transactionIndex": "0x4",
      "blockHash": "0x2d01fb958dc9798251da423a7ce73dd368720eb5d60e7f5d50f8151935ebbbce",
      "blockNumber": "0x39f65ad",
      "gasUsed": "0x54468",
      "effectiveGasPrice": "0x1312d01",
      "blobGasUsed": "0x10360",
      "from": "0x253a399b2a63b400f1e7f06f83fbcc0f1236f62f",
      "to": "0x713d8c2f1983848edfe2f1f3730d9ff74aba4b7f",
      "contractAddress": null
    },
    {
      "type": "0x0",
      "status": "0x1",
      "cumulativeGasUsed": "0x1179f4",
      "logs": [
        {
          "address": "0x713d8c2f1983848edfe2f1f3730d9ff74aba4b7f",
          "topics": [
            "0x0face291eef5c87612364bee04388acc5d3b3fdd67696755ef1354fd31145622",
            "0x5e6ee8544ba76dd67fa069c1f6ca8ee9d5d30090d6429cee48c97d0b9a454b8d",
            "0x6d79dfd7f52ea40736f8d2a62e9335c23fd9d6a0032de76283f5e8d646cfb759"
          ],
          "data": "0x000000000000000000000000000000000000000000000000000000000000001c000000000000000000000000000000000000000000000000000000000000003700000000000000000000000000000000000000000000000000000000000005dc000000000000000000000000253a399b2a63b400f1e7f06f83fbcc0f1236f62f",
          "blockHash": "0x2d01fb958dc9798251da423a7ce73dd368720eb5d60e7f5d50f8151935ebbbce",
          "blockNumber": "0x39f65ad",
          "blockTimestamp": "0x6a11bb39",
          "transactionHash": "0xcb8a88a06313e746fd383c3bf9c2d0904469f5009df204f43bfe1940e1f7925e",
          "transactionIndex": "0x5",
          "logIndex": "0x10",
          "removed": false
        }
      ],
      "logsBloom": "0x00000000004000000000000000000000000000000000000000000000008000000000000000000000000000000000000000000000000000000000000000000000000000000000000000000000000000000000000000000000000200000020000000000000000000000000000000080000000000000000000800000000000000000000000000000000000000000000000000000000000000000000000000000000000000000004000000000000000000000000000000000000000000000000000000000000000000000000008000000010000000000000000000000000000000800000400000000000000000000000000000000000400000000000000000000000",
      "transactionHash": "0xcb8a88a06313e746fd383c3bf9c2d0904469f5009df204f43bfe1940e1f7925e",
      "transactionIndex": "0x5",
      "blockHash": "0x2d01fb958dc9798251da423a7ce73dd368720eb5d60e7f5d50f8151935ebbbce",
      "blockNumber": "0x39f65ad",
      "gasUsed": "0x501c0",
      "effectiveGasPrice": "0x1312d01",
      "blobGasUsed": "0x10360",
      "from": "0x253a399b2a63b400f1e7f06f83fbcc0f1236f62f",
      "to": "0x713d8c2f1983848edfe2f1f3730d9ff74aba4b7f",
      "contractAddress": null
    },
    {
      "type": "0x0",
      "status": "0x1",
      "cumulativeGasUsed": "0x167bb4",
      "logs": [
        {
          "address": "0x713d8c2f1983848edfe2f1f3730d9ff74aba4b7f",
          "topics": [
            "0x0face291eef5c87612364bee04388acc5d3b3fdd67696755ef1354fd31145622",
            "0x371179826b6d58ab586088417d8038d6ab668952576a6168747e86003a077753",
            "0x86e8639d2a670d6062c5d18de278e9d7b27ebda30c6fa60b662c743adec6d043"
          ],
          "data": "0x000000000000000000000000000000000000000000000000000000000000004800000000000000000000000000000000000000000000000000000000000000230000000000000000000000000000000000000000000000000000000000001d4c000000000000000000000000253a399b2a63b400f1e7f06f83fbcc0f1236f62f",
          "blockHash": "0x2d01fb958dc9798251da423a7ce73dd368720eb5d60e7f5d50f8151935ebbbce",
          "blockNumber": "0x39f65ad",
          "blockTimestamp": "0x6a11bb39",
          "transactionHash": "0x19c8b6e6e691301dd5e722e11dac8d40eaf4618529a701e69ea0be3cd170d28d",
          "transactionIndex": "0x6",
          "logIndex": "0x11",
          "removed": false
        }
      ],
      "logsBloom": "0x00000000000000000000000000000000000000000000000000800000008000000000000000000000000000000000000000000000000000000000000000000000000000000000000000000000000000000000000000000000000200000000000000000000000000000000000000080000000000000000000000000000000000000000002000000000000000000002000000000000000004000000000000000000000000000004000000000000000000000000000000000000000000000000000000000000000000000000000000000010000000000000000000000000000000800002000000000000000000000000000000000000000000000000200000000000",
      "transactionHash": "0x19c8b6e6e691301dd5e722e11dac8d40eaf4618529a701e69ea0be3cd170d28d",
      "transactionIndex": "0x6",
      "blockHash": "0x2d01fb958dc9798251da423a7ce73dd368720eb5d60e7f5d50f8151935ebbbce",
      "blockNumber": "0x39f65ad",
      "gasUsed": "0x501c0",
      "effectiveGasPrice": "0x1312d01",
      "blobGasUsed": "0x10360",
      "from": "0x253a399b2a63b400f1e7f06f83fbcc0f1236f62f",
      "to": "0x713d8c2f1983848edfe2f1f3730d9ff74aba4b7f",
      "contractAddress": null
    },
    {
      "type": "0x0",
      "status": "0x1",
      "cumulativeGasUsed": "0x1b7d80",
      "logs": [
        {
          "address": "0x713d8c2f1983848edfe2f1f3730d9ff74aba4b7f",
          "topics": [
            "0x0face291eef5c87612364bee04388acc5d3b3fdd67696755ef1354fd31145622",
            "0x727ca50ff44425442cde1a2494b484883986aeb25e743e5ca2879299522e1cd0",
            "0x26557499cc8c660efebddad4483b540493bdcc7c0c6b208a3b3c6ef6a56b5ae3"
          ],
          "data": "0x000000000000000000000000000000000000000000000000000000000000001e000000000000000000000000000000000000000000000000000000000000004e00000000000000000000000000000000000000000000000000000000000007d0000000000000000000000000253a399b2a63b400f1e7f06f83fbcc0f1236f62f",
          "blockHash": "0x2d01fb958dc9798251da423a7ce73dd368720eb5d60e7f5d50f8151935ebbbce",
          "blockNumber": "0x39f65ad",
          "blockTimestamp": "0x6a11bb39",
          "transactionHash": "0x5e8b657d3341802aba0c8b6e324902d0f8a73db9731e083fe8321055bf0ebd3d",
          "transactionIndex": "0x7",
          "logIndex": "0x12",
          "removed": false
        }
      ],
      "logsBloom": "0x00000000000000000000000000000000000000000000000000000000008000000000000000000000000000000000000000000000000000000000000000000004000000000000000000000000000000000000000000000000000200000000000000000000000000000000000000080000000000000000000000100000000000000400000000000000000000000000000000000000000000000080000000000000000000000004000000000000000000000000000000000000000000100000000000000000000000000000000000000010000000000000000000000000000000800000000000000000000000000000000000000000000000080000000000000000",
      "transactionHash": "0x5e8b657d3341802aba0c8b6e324902d0f8a73db9731e083fe8321055bf0ebd3d",
      "transactionIndex": "0x7",
      "blockHash": "0x2d01fb958dc9798251da423a7ce73dd368720eb5d60e7f5d50f8151935ebbbce",
      "blockNumber": "0x39f65ad",
      "gasUsed": "0x501cc",
      "effectiveGasPrice": "0x1312d01",
      "blobGasUsed": "0x10360",
      "from": "0x253a399b2a63b400f1e7f06f83fbcc0f1236f62f",
      "to": "0x713d8c2f1983848edfe2f1f3730d9ff74aba4b7f",
      "contractAddress": null
    }
  ],
  "libraries": [],
  "pending": [],
  "returns": {},
  "timestamp": 1779546938287,
  "chain": 196,
  "commit": null
}