{
  "transactions": [
    {
      "hash": "0x1cc79012315770c0007901679c6fb3382697ad11b548f2748db9ab7c6e97e630",
      "transactionType": "CALL",
      "contractName": null,
      "contractAddress": "0x360e68faccca8ca495c1b759fd9eee466db9fb32",
      "function": "initialize((address,address,uint24,int24,address),uint160)",
      "arguments": [
        "(0x5A77f1443D16ee5761d310e38b62f77f726bC71c, 0x74b7F16337b8972027F6196A17a631aC6dE26d22, 8388608, 60, 0x3789B7CBAFc3a1AfC45186f51e00239C44c9c0C0)",
        "4339505055700000000000000"
      ],
      "transaction": {
        "from": "0x253a399b2a63b400f1e7f06f83fbcc0f1236f62f",
        "to": "0x360e68faccca8ca495c1b759fd9eee466db9fb32",
        "gas": "0x1191c",
        "value": "0x0",
        "input": "0x6276cbbe0000000000000000000000005a77f1443d16ee5761d310e38b62f77f726bc71c00000000000000000000000074b7f16337b8972027f6196a17a631ac6de26d220000000000000000000000000000000000000000000000000000000000800000000000000000000000000000000000000000000000000000000000000000003c0000000000000000000000003789b7cbafc3a1afc45186f51e00239c44c9c0c00000000000000000000000000000000000000000000396ed0a5a9bfc60214000",
        "nonce": "0xb",
        "chainId": "0xc4"
      },
      "additionalContracts": [],
      "isFixedGasLimit": false
    },
    {
      "hash": "0xc0e59cdc3c53c187f6cc9b379f36eede9929988fd8b82ada55c79021ea6ff4b9",
      "transactionType": "CALL",
      "contractName": null,
      "contractAddress": "0xb19fc72d5df88aa056cae1b56edabea442437dd7",
      "function": "setPolicy(bytes32,(uint256,uint256,uint24,uint24,bool,bool,address))",
      "arguments": [
        "0x04e9effc458bfd24b03b19aa526dbccee03b83001dcee5895aa12bdb7deeb57d",
        "(80, 15, 3000, 10000, true, true, 0x253a399B2A63b400f1e7f06f83Fbcc0F1236f62f)"
      ],
      "transaction": {
        "from": "0x253a399b2a63b400f1e7f06f83fbcc0f1236f62f",
        "to": "0xb19fc72d5df88aa056cae1b56edabea442437dd7",
        "gas": "0x3241c",
        "value": "0x0",
        "input": "0x8437a6af04e9effc458bfd24b03b19aa526dbccee03b83001dcee5895aa12bdb7deeb57d0000000000000000000000000000000000000000000000000000000000000050000000000000000000000000000000000000000000000000000000000000000f0000000000000000000000000000000000000000000000000000000000000bb8000000000000000000000000000000000000000000000000000000000000271000000000000000000000000000000000000000000000000000000000000000010000000000000000000000000000000000000000000000000000000000000001000000000000000000000000253a399b2a63b400f1e7f06f83fbcc0f1236f62f",
        "nonce": "0xc",
        "chainId": "0xc4"
      },
      "additionalContracts": [],
      "isFixedGasLimit": false
    },
    {
      "hash": "0x561c2d7234216801f146488604b7491ea517a6518a021017340afec0f8a3dcbc",
      "transactionType": "CALL",
      "contractName": null,
      "contractAddress": "0x360e68faccca8ca495c1b759fd9eee466db9fb32",
      "function": "initialize((address,address,uint24,int24,address),uint160)",
      "arguments": [
        "(0x74b7F16337b8972027F6196A17a631aC6dE26d22, 0xEA034fb02eB1808C2cc3adbC15f447B93CbE08e1, 8388608, 60, 0x3789B7CBAFc3a1AfC45186f51e00239C44c9c0C0)",
        "30620000000000000000000000"
      ],
      "transaction": {
        "from": "0x253a399b2a63b400f1e7f06f83fbcc0f1236f62f",
        "to": "0x360e68faccca8ca495c1b759fd9eee466db9fb32",
        "gas": "0x11910",
        "value": "0x0",
        "input": "0x6276cbbe00000000000000000000000074b7f16337b8972027f6196a17a631ac6de26d22000000000000000000000000ea034fb02eb1808c2cc3adbc15f447b93cbe08e10000000000000000000000000000000000000000000000000000000000800000000000000000000000000000000000000000000000000000000000000000003c0000000000000000000000003789b7cbafc3a1afc45186f51e00239c44c9c0c000000000000000000000000000000000000000000019540986acdf1009800000",
        "nonce": "0xd",
        "chainId": "0xc4"
      },
      "additionalContracts": [],
      "isFixedGasLimit": false
    },
    {
      "hash": "0x99f7c790474f42483fa28959c416c1d206e148cb41703ed56aab7b4cbe1b0591",
      "transactionType": "CALL",
      "contractName": null,
      "contractAddress": "0xb19fc72d5df88aa056cae1b56edabea442437dd7",
      "function": "setPolicy(bytes32,(uint256,uint256,uint24,uint24,bool,bool,address))",
      "arguments": [
        "0x6d79dfd7f52ea40736f8d2a62e9335c23fd9d6a0032de76283f5e8d646cfb759",
        "(75, 20, 2500, 8000, true, true, 0x253a399B2A63b400f1e7f06f83Fbcc0F1236f62f)"
      ],
      "transaction": {
        "from": "0x253a399b2a63b400f1e7f06f83fbcc0f1236f62f",
        "to": "0xb19fc72d5df88aa056cae1b56edabea442437dd7",
        "gas": "0x2f77f",
        "value": "0x0",
        "input": "0x8437a6af6d79dfd7f52ea40736f8d2a62e9335c23fd9d6a0032de76283f5e8d646cfb759000000000000000000000000000000000000000000000000000000000000004b000000000000000000000000000000000000000000000000000000000000001400000000000000000000000000000000000000000000000000000000000009c40000000000000000000000000000000000000000000000000000000000001f4000000000000000000000000000000000000000000000000000000000000000010000000000000000000000000000000000000000000000000000000000000001000000000000000000000000253a399b2a63b400f1e7f06f83fbcc0f1236f62f",
        "nonce": "0xe",
        "chainId": "0xc4"
      },
      "additionalContracts": [],
      "isFixedGasLimit": false
    },
    {
      "hash": "0xcda752de611f9ca23524c4d4bea7749fc0d70a639beb401feab4691217a38189",
      "transactionType": "CALL",
      "contractName": null,
      "contractAddress": "0x360e68faccca8ca495c1b759fd9eee466db9fb32",
      "function": "initialize((address,address,uint24,int24,address),uint160)",
      "arguments": [
        "(0x1E4a5963aBFD975d8c9021ce480b42188849D41d, 0x5A77f1443D16ee5761d310e38b62f77f726bC71c, 8388608, 60, 0x3789B7CBAFc3a1AfC45186f51e00239C44c9c0C0)",
        "1447000000000000000000000000000000"
      ],
      "transaction": {
        "from": "0x253a399b2a63b400f1e7f06f83fbcc0f1236f62f",
        "to": "0x360e68faccca8ca495c1b759fd9eee466db9fb32",
        "gas": "0x1141a",
        "value": "0x0",
        "input": "0x6276cbbe0000000000000000000000001e4a5963abfd975d8c9021ce480b42188849d41d0000000000000000000000005a77f1443d16ee5761d310e38b62f77f726bc71c0000000000000000000000000000000000000000000000000000000000800000000000000000000000000000000000000000000000000000000000000000003c0000000000000000000000003789b7cbafc3a1afc45186f51e00239c44c9c0c00000000000000000000000000000000000004757b52a5d3e3eecc70fc0000000",
        "nonce": "0xf",
        "chainId": "0xc4"
      },
      "additionalContracts": [],
      "isFixedGasLimit": false
    },
    {
      "hash": "0x2466725850c14b577f10527e7476da51964f73b39cb8fe8aab7133b4187765df",
      "transactionType": "CALL",
      "contractName": null,
      "contractAddress": "0xb19fc72d5df88aa056cae1b56edabea442437dd7",
      "function": "setPolicy(bytes32,(uint256,uint256,uint24,uint24,bool,bool,address))",
      "arguments": [
        "0x86e8639d2a670d6062c5d18de278e9d7b27ebda30c6fa60b662c743adec6d043",
        "(80, 15, 3000, 10000, true, true, 0x253a399B2A63b400f1e7f06f83Fbcc0F1236f62f)"
      ],
      "transaction": {
        "from": "0x253a399b2a63b400f1e7f06f83fbcc0f1236f62f",
        "to": "0xb19fc72d5df88aa056cae1b56edabea442437dd7",
        "gas": "0x2f77f",
        "value": "0x0",
        "input": "0x8437a6af86e8639d2a670d6062c5d18de278e9d7b27ebda30c6fa60b662c743adec6d0430000000000000000000000000000000000000000000000000000000000000050000000000000000000000000000000000000000000000000000000000000000f0000000000000000000000000000000000000000000000000000000000000bb8000000000000000000000000000000000000000000000000000000000000271000000000000000000000000000000000000000000000000000000000000000010000000000000000000000000000000000000000000000000000000000000001000000000000000000000000253a399b2a63b400f1e7f06f83fbcc0f1236f62f",
        "nonce": "0x10",
        "chainId": "0xc4"
      },
      "additionalContracts": [],
      "isFixedGasLimit": false
    },
    {
      "hash": "0xa279044613a531229e4b85739ea540dc5d6e2dafe219a10340a5199b4637c22c",
      "transactionType": "CALL",
      "contractName": null,
      "contractAddress": "0x360e68faccca8ca495c1b759fd9eee466db9fb32",
      "function": "initialize((address,address,uint24,int24,address),uint160)",
      "arguments": [
        "(0x74b7F16337b8972027F6196A17a631aC6dE26d22, 0xe538905cf8410324e03A5A23C1c177a474D59b2b, 8388608, 60, 0x3789B7CBAFc3a1AfC45186f51e00239C44c9c0C0)",
        "11200000000000000000000000000000000"
      ],
      "transaction": {
        "from": "0x253a399b2a63b400f1e7f06f83fbcc0f1236f62f",
        "to": "0x360e68faccca8ca495c1b759fd9eee466db9fb32",
        "gas": "0x1141a",
        "value": "0x0",
        "input": "0x6276cbbe00000000000000000000000074b7f16337b8972027f6196a17a631ac6de26d22000000000000000000000000e538905cf8410324e03a5a23c1c177a474d59b2b0000000000000000000000000000000000000000000000000000000000800000000000000000000000000000000000000000000000000000000000000000003c0000000000000000000000003789b7cbafc3a1afc45186f51e00239c44c9c0c00000000000000000000000000000000000022833dfcc980a7ba8c87000000000",
        "nonce": "0x11",
        "chainId": "0xc4"
      },
      "additionalContracts": [],
      "isFixedGasLimit": false
    },
    {
      "hash": "0x3f707188b3d1f57fbaf6c045229d07283046f8527e422272560aa45c084a0211",
      "transactionType": "CALL",
      "contractName": null,
      "contractAddress": "0xb19fc72d5df88aa056cae1b56edabea442437dd7",
      "function": "setPolicy(bytes32,(uint256,uint256,uint24,uint24,bool,bool,address))",
      "arguments": [
        "0x26557499cc8c660efebddad4483b540493bdcc7c0c6b208a3b3c6ef6a56b5ae3",
        "(70, 25, 3000, 12000, true, true, 0x253a399B2A63b400f1e7f06f83Fbcc0F1236f62f)"
      ],
      "transaction": {
        "from": "0x253a399b2a63b400f1e7f06f83fbcc0f1236f62f",
        "to": "0xb19fc72d5df88aa056cae1b56edabea442437dd7",
        "gas": "0x2f77f",
        "value": "0x0",
        "input": "0x8437a6af26557499cc8c660efebddad4483b540493bdcc7c0c6b208a3b3c6ef6a56b5ae3000000000000000000000000000000000000000000000000000000000000004600000000000000000000000000000000000000000000000000000000000000190000000000000000000000000000000000000000000000000000000000000bb80000000000000000000000000000000000000000000000000000000000002ee000000000000000000000000000000000000000000000000000000000000000010000000000000000000000000000000000000000000000000000000000000001000000000000000000000000253a399b2a63b400f1e7f06f83fbcc0f1236f62f",
        "nonce": "0x12",
        "chainId": "0xc4"
      },
      "additionalContracts": [],
      "isFixedGasLimit": false
    }
  ],
  "receipts": [
    {
      "type": "0x0",
      "status": "0x1",
      "cumulativeGasUsed": "0x90d66",
      "logs": [
        {
          "address": "0x360e68faccca8ca495c1b759fd9eee466db9fb32",
          "topics": [
            "0xdd466e674ea557f56295e2d0218a125ea4b4f0f6f3307b95f85e6110838d6438",
            "0x04e9effc458bfd24b03b19aa526dbccee03b83001dcee5895aa12bdb7deeb57d",
            "0x0000000000000000000000005a77f1443d16ee5761d310e38b62f77f726bc71c",
            "0x00000000000000000000000074b7f16337b8972027f6196a17a631ac6de26d22"
          ],
          "data": "0x0000000000000000000000000000000000000000000000000000000000800000000000000000000000000000000000000000000000000000000000000000003c0000000000000000000000003789b7cbafc3a1afc45186f51e00239c44c9c0c00000000000000000000000000000000000000000000396ed0a5a9bfc60214000fffffffffffffffffffffffffffffffffffffffffffffffffffffffffffd015f",
          "blockHash": "0x9cd7f63ae1050581a4a590190b09da56bf056a1c1a82017cb698287de9e9b091",
          "blockNumber": "0x39f5d77",
          "blockTimestamp": "0x6a11b303",
          "transactionHash": "0x2466725850c14b577f10527e7476da51964f73b39cb8fe8aab7133b4187765df",
          "transactionIndex": "0x5",
          "logIndex": "0x14",
          "removed": false
        }
      ],
      "logsBloom": "0x00000000000000000000000000000000000000000000000000000000000000000000004000000000000000000000000000000000000000000000000000000000000000000000000001000000000000000000000000000004000000000000000000000000000040000000002000000000000000000000000000000000000000000002000000000008000000000000000000000001000000000000000000200000000000000000000000000000000000000000000000000000000000000000000000000000000000000000000000000000000004000000000000000000000000000100000001020000000000000000000000000000000000000000002000000008",
      "transactionHash": "0x2466725850c14b577f10527e7476da51964f73b39cb8fe8aab7133b4187765df",
      "transactionIndex": "0x5",
      "blockHash": "0x9cd7f63ae1050581a4a590190b09da56bf056a1c1a82017cb698287de9e9b091",
      "blockNumber": "0x39f5d77",
      "gasUsed": "0xcb85",
      "effectiveGasPrice": "0x1312d01",
      "blobGasUsed": "0xdc50",
      "from": "0x253a399b2a63b400f1e7f06f83fbcc0f1236f62f",
      "to": "0x360e68faccca8ca495c1b759fd9eee466db9fb32",
      "contractAddress": null
    },
    {
      "type": "0x0",
      "status": "0x1",
      "cumulativeGasUsed": "0xb3338",
      "logs": [
        {
          "address": "0xb19fc72d5df88aa056cae1b56edabea442437dd7",
          "topics": [
            "0x4796626372633c5d33077ba956a4f0c5e8574bcdfee92d39537c1e9e7089dac5",
            "0x04e9effc458bfd24b03b19aa526dbccee03b83001dcee5895aa12bdb7deeb57d",
            "0x000000000000000000000000253a399b2a63b400f1e7f06f83fbcc0f1236f62f"
          ],
          "data": "0x0000000000000000000000000000000000000000000000000000000000000001",
          "blockHash": "0x9cd7f63ae1050581a4a590190b09da56bf056a1c1a82017cb698287de9e9b091",
          "blockNumber": "0x39f5d77",
          "blockTimestamp": "0x6a11b303",
          "transactionHash": "0x561c2d7234216801f146488604b7491ea517a6518a021017340afec0f8a3dcbc",
          "transactionIndex": "0x6",
          "logIndex": "0x15",
          "removed": false
        }
      ],
      "logsBloom": "0x00000000000000000000000000000000000000000000000000000000000000000000004000000000000000000000000000000000000000000000000000000000000000000000000000000000000000000000000000000004000000000000000000000000000040000000000000400000000000000000000000000000000000000000000000000000000000000000000000000000000000000000000000000000000000000000000000000000000010000000000000000000000000000000000400000000000000000000000800000000000000000040000000000004000020000000000000000000000000000008000000000000000000000000200000000000",
      "transactionHash": "0x561c2d7234216801f146488604b7491ea517a6518a021017340afec0f8a3dcbc",
      "transactionIndex": "0x6",
      "blockHash": "0x9cd7f63ae1050581a4a590190b09da56bf056a1c1a82017cb698287de9e9b091",
      "blockNumber": "0x39f5d77",
      "gasUsed": "0x225d2",
      "effectiveGasPrice": "0x1312d01",
      "blobGasUsed": "0xd160",
      "from": "0x253a399b2a63b400f1e7f06f83fbcc0f1236f62f",
      "to": "0xb19fc72d5df88aa056cae1b56edabea442437dd7",
      "contractAddress": null
    },
    {
      "type": "0x0",
      "status": "0x1",
      "cumulativeGasUsed": "0xbfeb5",
      "logs": [
        {
          "address": "0x360e68faccca8ca495c1b759fd9eee466db9fb32",
          "topics": [
            "0xdd466e674ea557f56295e2d0218a125ea4b4f0f6f3307b95f85e6110838d6438",
            "0x6d79dfd7f52ea40736f8d2a62e9335c23fd9d6a0032de76283f5e8d646cfb759",
            "0x00000000000000000000000074b7f16337b8972027f6196a17a631ac6de26d22",
            "0x000000000000000000000000ea034fb02eb1808c2cc3adbc15f447b93cbe08e1"
          ],
          "data": "0x0000000000000000000000000000000000000000000000000000000000800000000000000000000000000000000000000000000000000000000000000000003c0000000000000000000000003789b7cbafc3a1afc45186f51e00239c44c9c0c000000000000000000000000000000000000000000019540986acdf1009800000fffffffffffffffffffffffffffffffffffffffffffffffffffffffffffd9a07",
          "blockHash": "0x9cd7f63ae1050581a4a590190b09da56bf056a1c1a82017cb698287de9e9b091",
          "blockNumber": "0x39f5d77",
          "blockTimestamp": "0x6a11b303",
          "transactionHash": "0x99f7c790474f42483fa28959c416c1d206e148cb41703ed56aab7b4cbe1b0591",
          "transactionIndex": "0x7",
          "logIndex": "0x16",
          "removed": false
        }
      ],
      "logsBloom": "0x00000000004000000000000000000000000000000000000000000000000000000000000000000000002000000000000000000000000000000000000000000000000000000000000001000000000000000000000000000000000000000000000000000000000000000002000000000000000000000000000000000000000000000002000000000008000000000000000000000001000000000000000000200000000000000000000000000000000000000000000000000000000000000000000000000000000000000000000200000000000004000000000000000000000000000000400000020000000000000000000000000000400000000000002000000008",
      "transactionHash": "0x99f7c790474f42483fa28959c416c1d206e148cb41703ed56aab7b4cbe1b0591",
      "transactionIndex": "0x7",
      "blockHash": "0x9cd7f63ae1050581a4a590190b09da56bf056a1c1a82017cb698287de9e9b091",
      "blockNumber": "0x39f5d77",
      "gasUsed": "0xcb7d",
      "effectiveGasPrice": "0x1312d01",
      "blobGasUsed": "0xdc50",
      "from": "0x253a399b2a63b400f1e7f06f83fbcc0f1236f62f",
      "to": "0x360e68faccca8ca495c1b759fd9eee466db9fb32",
      "contractAddress": null
    },
    {
      "type": "0x0",
      "status": "0x1",
      "cumulativeGasUsed": "0xe2493",
      "logs": [
        {
          "address": "0xb19fc72d5df88aa056cae1b56edabea442437dd7",
          "topics": [
            "0x4796626372633c5d33077ba956a4f0c5e8574bcdfee92d39537c1e9e7089dac5",
            "0x6d79dfd7f52ea40736f8d2a62e9335c23fd9d6a0032de76283f5e8d646cfb759",
            "0x000000000000000000000000253a399b2a63b400f1e7f06f83fbcc0f1236f62f"
          ],
          "data": "0x0000000000000000000000000000000000000000000000000000000000000001",
          "blockHash": "0x9cd7f63ae1050581a4a590190b09da56bf056a1c1a82017cb698287de9e9b091",
          "blockNumber": "0x39f5d77",
          "blockTimestamp": "0x6a11b303",
          "transactionHash": "0xc0e59cdc3c53c187f6cc9b379f36eede9929988fd8b82ada55c79021ea6ff4b9",
          "transactionIndex": "0x8",
          "logIndex": "0x17",
          "removed": false
        }
      ],
      "logsBloom": "0x00000000004000000000000000000000000000000000000000000000000000000000000000000000000000000000000000000000000000000000000000000000000000000000000000000000000000000000000000000000000000000000000000000000000000000000000000400000000000000000000000000000000000000000000000000000000000000000000000000000000000000000000000000000000000000000000000000000000010000000000000000000000000000000000400000000000000000000000800000000000000000040000000000004000020000000400000000000000000000008000000000000400000000000200000000000",
      "transactionHash": "0xc0e59cdc3c53c187f6cc9b379f36eede9929988fd8b82ada55c79021ea6ff4b9",
      "transactionIndex": "0x8",
      "blockHash": "0x9cd7f63ae1050581a4a590190b09da56bf056a1c1a82017cb698287de9e9b091",
      "blockNumber": "0x39f5d77",
      "gasUsed": "0x225de",
      "effectiveGasPrice": "0x1312d01",
      "blobGasUsed": "0xd160",
      "from": "0x253a399b2a63b400f1e7f06f83fbcc0f1236f62f",
      "to": "0xb19fc72d5df88aa056cae1b56edabea442437dd7",
      "contractAddress": null
    },
    {
      "type": "0x0",
      "status": "0x1",
      "cumulativeGasUsed": "0xeec78",
      "logs": [
        {
          "address": "0x360e68faccca8ca495c1b759fd9eee466db9fb32",
          "topics": [
            "0xdd466e674ea557f56295e2d0218a125ea4b4f0f6f3307b95f85e6110838d6438",
            "0x86e8639d2a670d6062c5d18de278e9d7b27ebda30c6fa60b662c743adec6d043",
            "0x0000000000000000000000001e4a5963abfd975d8c9021ce480b42188849d41d",
            "0x0000000000000000000000005a77f1443d16ee5761d310e38b62f77f726bc71c"
          ],
          "data": "0x0000000000000000000000000000000000000000000000000000000000800000000000000000000000000000000000000000000000000000000000000000003c0000000000000000000000003789b7cbafc3a1afc45186f51e00239c44c9c0c00000000000000000000000000000000000004757b52a5d3e3eecc70fc0000000000000000000000000000000000000000000000000000000000000000002fea7",
          "blockHash": "0x9cd7f63ae1050581a4a590190b09da56bf056a1c1a82017cb698287de9e9b091",
          "blockNumber": "0x39f5d77",
          "blockTimestamp": "0x6a11b303",
          "transactionHash": "0xa279044613a531229e4b85739ea540dc5d6e2dafe219a10340a5199b4637c22c",
          "transactionIndex": "0x9",
          "logIndex": "0x18",
          "removed": false
        }
      ],
      "logsBloom": "0x00000000000000000000000000000000000000000000000000800000000000040000000000000000000000000000000000000000000000000000000000000000000000000000000001000000000000000000000000000000000000000000000000000000000000000000002000000004000000000000000000000000000000000000000000000008000000000000000000000001000000000000000000200000000000002000000000000000000000000000000000000000000000000000000000000000000000000000000000000000000004000000000000000000000000000102000001000000000000000000000000000000000000000000200000000008",
      "transactionHash": "0xa279044613a531229e4b85739ea540dc5d6e2dafe219a10340a5199b4637c22c",
      "transactionIndex": "0x9",
      "blockHash": "0x9cd7f63ae1050581a4a590190b09da56bf056a1c1a82017cb698287de9e9b091",
      "blockNumber": "0x39f5d77",
      "gasUsed": "0xc7e5",
      "effectiveGasPrice": "0x1312d01",
      "blobGasUsed": "0xdf70",
      "from": "0x253a399b2a63b400f1e7f06f83fbcc0f1236f62f",
      "to": "0x360e68faccca8ca495c1b759fd9eee466db9fb32",
      "contractAddress": null
    },
    {
      "type": "0x0",
      "status": "0x1",
      "cumulativeGasUsed": "0x111256",
      "logs": [
        {
          "address": "0xb19fc72d5df88aa056cae1b56edabea442437dd7",
          "topics": [
            "0x4796626372633c5d33077ba956a4f0c5e8574bcdfee92d39537c1e9e7089dac5",
            "0x86e8639d2a670d6062c5d18de278e9d7b27ebda30c6fa60b662c743adec6d043",
            "0x000000000000000000000000253a399b2a63b400f1e7f06f83fbcc0f1236f62f"
          ],
          "data": "0x0000000000000000000000000000000000000000000000000000000000000001",
          "blockHash": "0x9cd7f63ae1050581a4a590190b09da56bf056a1c1a82017cb698287de9e9b091",
          "blockNumber": "0x39f5d77",
          "blockTimestamp": "0x6a11b303",
          "transactionHash": "0xcda752de611f9ca23524c4d4bea7749fc0d70a639beb401feab4691217a38189",
          "transactionIndex": "0xa",
          "logIndex": "0x19",
          "removed": false
        }
      ],
      "logsBloom": "0x00000000000000000000000000000000000000000000000000800000000000000000000000000000000000000000000000000000000000000000000000000000000000000000000000000000000000000000000000000000000000000000000000000000000000000000000000400000000000000000000000000000000000000000000000000000000000000000000000000000000000000000000000000000000000000000000000000000000010000000000000000000000000000000000400000000000000000000000800000000000000000040000000000004000020000002000000000000000000000008000000000000000000000000200000000000",
      "transactionHash": "0xcda752de611f9ca23524c4d4bea7749fc0d70a639beb401feab4691217a38189",
      "transactionIndex": "0xa",
      "blockHash": "0x9cd7f63ae1050581a4a590190b09da56bf056a1c1a82017cb698287de9e9b091",
      "blockNumber": "0x39f5d77",
      "gasUsed": "0x225de",
      "effectiveGasPrice": "0x1312d01",
      "blobGasUsed": "0xd160",
      "from": "0x253a399b2a63b400f1e7f06f83fbcc0f1236f62f",
      "to": "0xb19fc72d5df88aa056cae1b56edabea442437dd7",
      "contractAddress": null
    },
    {
      "type": "0x0",
      "status": "0x1",
      "cumulativeGasUsed": "0x11da3b",
      "logs": [
        {
          "address": "0x360e68faccca8ca495c1b759fd9eee466db9fb32",
          "topics": [
            "0xdd466e674ea557f56295e2d0218a125ea4b4f0f6f3307b95f85e6110838d6438",
            "0x26557499cc8c660efebddad4483b540493bdcc7c0c6b208a3b3c6ef6a56b5ae3",
            "0x00000000000000000000000074b7f16337b8972027f6196a17a631ac6de26d22",
            "0x000000000000000000000000e538905cf8410324e03a5a23c1c177a474d59b2b"
          ],
          "data": "0x0000000000000000000000000000000000000000000000000000000000800000000000000000000000000000000000000000000000000000000000000000003c0000000000000000000000003789b7cbafc3a1afc45186f51e00239c44c9c0c00000000000000000000000000000000000022833dfcc980a7ba8c870000000000000000000000000000000000000000000000000000000000000000000039e89",
          "blockHash": "0x9cd7f63ae1050581a4a590190b09da56bf056a1c1a82017cb698287de9e9b091",
          "blockNumber": "0x39f5d77",
          "blockTimestamp": "0x6a11b303",
          "transactionHash": "0x3f707188b3d1f57fbaf6c045229d07283046f8527e422272560aa45c084a0211",
          "transactionIndex": "0xb",
          "logIndex": "0x1a",
          "removed": false
        }
      ],
      "logsBloom": "0x00000000000000200000000000000000000000000000000000000000000000000000000000000000000000000000000000000000000000000000000000000000000000000000000001000000000000000000000000000000000000000000000000000000000000000000000000000000000000000000000000100000000000000402000000000008000000000000000000000001000800000080000000200000000000000000000000000000000004000000000000000000000000000000000000000000000000000000000000000000000004000000000000000000000000000000000000020000000000000000000000000000000000000000002000000008",
      "transactionHash": "0x3f707188b3d1f57fbaf6c045229d07283046f8527e422272560aa45c084a0211",
      "transactionIndex": "0xb",
      "blockHash": "0x9cd7f63ae1050581a4a590190b09da56bf056a1c1a82017cb698287de9e9b091",
      "blockNumber": "0x39f5d77",
      "gasUsed": "0xc7e5",
      "effectiveGasPrice": "0x1312d01",
      "blobGasUsed": "0xdf70",
      "from": "0x253a399b2a63b400f1e7f06f83fbcc0f1236f62f",
      "to": "0x360e68faccca8ca495c1b759fd9eee466db9fb32",
      "contractAddress": null
    },
    {
      "type": "0x0",
      "status": "0x1",
      "cumulativeGasUsed": "0x140019",
      "logs": [
        {
          "address": "0xb19fc72d5df88aa056cae1b56edabea442437dd7",
          "topics": [
            "0x4796626372633c5d33077ba956a4f0c5e8574bcdfee92d39537c1e9e7089dac5",
            "0x26557499cc8c660efebddad4483b540493bdcc7c0c6b208a3b3c6ef6a56b5ae3",
            "0x000000000000000000000000253a399b2a63b400f1e7f06f83fbcc0f1236f62f"
          ],
          "data": "0x0000000000000000000000000000000000000000000000000000000000000001",
          "blockHash": "0x9cd7f63ae1050581a4a590190b09da56bf056a1c1a82017cb698287de9e9b091",
          "blockNumber": "0x39f5d77",
          "blockTimestamp": "0x6a11b303",
          "transactionHash": "0x1cc79012315770c0007901679c6fb3382697ad11b548f2748db9ab7c6e97e630",
          "transactionIndex": "0xc",
          "logIndex": "0x1b",
          "removed": false
        }
      ],
      "logsBloom": "0x00000000000000000000000000000000000000000000000000000000000000000000000000000000000000000000000000000000000000000000000000000000000000000000000000000000000000000000000000000000000000000000000000000000000000000000000000400000000000000000000000100000000000000400000000000000000000000000000000000000000000000080000000000000000000000000000000000000000010000000000000000000000000000000000400000000000000000000000800000000000000000040000000000004000020000000000000000000000000000008000000000000000000000000200000000000",
      "transactionHash": "0x1cc79012315770c0007901679c6fb3382697ad11b548f2748db9ab7c6e97e630",
      "transactionIndex": "0xc",
      "blockHash": "0x9cd7f63ae1050581a4a590190b09da56bf056a1c1a82017cb698287de9e9b091",
      "blockNumber": "0x39f5d77",
      "gasUsed": "0x225de",
      "effectiveGasPrice": "0x1312d01",
      "blobGasUsed": "0xd160",
      "from": "0x253a399b2a63b400f1e7f06f83fbcc0f1236f62f",
      "to": "0xb19fc72d5df88aa056cae1b56edabea442437dd7",
      "contractAddress": null
    }
  ],
  "libraries": [],
  "pending": [],
  "returns": {},
  "timestamp": 1779544837522,
  "chain": 196,
  "commit": null
}