{
  "transactions": [
    {
      "hash": "0x85f62aabadc590e1c73567f7403c5e81ddd57b4e5dba1c798052a31852c70328",
      "transactionType": "CALL",
      "contractName": null,
      "contractAddress": "0x360e68faccca8ca495c1b759fd9eee466db9fb32",
      "function": "initialize((address,address,uint24,int24,address),uint160)",
      "arguments": [
        "(0x5A77f1443D16ee5761d310e38b62f77f726bC71c, 0x74b7F16337b8972027F6196A17a631aC6dE26d22, 8388608, 60, 0x3D28D43FFB4ed9321B0d740B2B457E802259C0c0)",
        "4339505055700000000000000"
      ],
      "transaction": {
        "from": "0x253a399b2a63b400f1e7f06f83fbcc0f1236f62f",
        "to": "0x360e68faccca8ca495c1b759fd9eee466db9fb32",
        "gas": "0x129b7",
        "value": "0x0",
        "input": "0x6276cbbe0000000000000000000000005a77f1443d16ee5761d310e38b62f77f726bc71c00000000000000000000000074b7f16337b8972027f6196a17a631ac6de26d220000000000000000000000000000000000000000000000000000000000800000000000000000000000000000000000000000000000000000000000000000003c0000000000000000000000003d28d43ffb4ed9321b0d740b2b457e802259c0c00000000000000000000000000000000000000000000396ed0a5a9bfc60214000",
        "nonce": "0x1d",
        "chainId": "0xc4"
      },
      "additionalContracts": [],
      "isFixedGasLimit": false
    },
    {
      "hash": "0xc1a93b1cae72255d1436acfa4c5696396a38f67b133b550c6abfcfcb95f42ce5",
      "transactionType": "CALL",
      "contractName": null,
      "contractAddress": "0x025774b4e49b7cb98d90111461b69af98c301cd7",
      "function": "setPolicy(bytes32,(uint256,uint256,uint24,uint24,bool,bool,address))",
      "arguments": [
        "0xa42ef95993739b4b4fa31f493b8e6fe2ecfdaa946a9eda3cf820d641e247bcb1",
        "(80, 15, 3000, 10000, true, true, 0x253a399B2A63b400f1e7f06f83Fbcc0F1236f62f)"
      ],
      "transaction": {
        "from": "0x253a399b2a63b400f1e7f06f83fbcc0f1236f62f",
        "to": "0x025774b4e49b7cb98d90111461b69af98c301cd7",
        "gas": "0x317f4",
        "value": "0x0",
        "input": "0x8437a6afa42ef95993739b4b4fa31f493b8e6fe2ecfdaa946a9eda3cf820d641e247bcb10000000000000000000000000000000000000000000000000000000000000050000000000000000000000000000000000000000000000000000000000000000f0000000000000000000000000000000000000000000000000000000000000bb8000000000000000000000000000000000000000000000000000000000000271000000000000000000000000000000000000000000000000000000000000000010000000000000000000000000000000000000000000000000000000000000001000000000000000000000000253a399b2a63b400f1e7f06f83fbcc0f1236f62f",
        "nonce": "0x1e",
        "chainId": "0xc4"
      },
      "additionalContracts": [],
      "isFixedGasLimit": false
    },
    {
      "hash": "0x9033953521bcbbf0f8b2d86a15514dae5bb3f2ca6c8e0af702b94a5f654e5ad4",
      "transactionType": "CALL",
      "contractName": null,
      "contractAddress": "0x360e68faccca8ca495c1b759fd9eee466db9fb32",
      "function": "initialize((address,address,uint24,int24,address),uint160)",
      "arguments": [
        "(0x74b7F16337b8972027F6196A17a631aC6dE26d22, 0xEA034fb02eB1808C2cc3adbC15f447B93CbE08e1, 8388608, 60, 0x3D28D43FFB4ed9321B0d740B2B457E802259C0c0)",
        "30620000000000000000000000"
      ],
      "transaction": {
        "from": "0x253a399b2a63b400f1e7f06f83fbcc0f1236f62f",
        "to": "0x360e68faccca8ca495c1b759fd9eee466db9fb32",
        "gas": "0x129ab",
        "value": "0x0",
        "input": "0x6276cbbe00000000000000000000000074b7f16337b8972027f6196a17a631ac6de26d22000000000000000000000000ea034fb02eb1808c2cc3adbc15f447b93cbe08e10000000000000000000000000000000000000000000000000000000000800000000000000000000000000000000000000000000000000000000000000000003c0000000000000000000000003d28d43ffb4ed9321b0d740b2b457e802259c0c000000000000000000000000000000000000000000019540986acdf1009800000",
        "nonce": "0x1f",
        "chainId": "0xc4"
      },
      "additionalContracts": [],
      "isFixedGasLimit": false
    },
    {
      "hash": "0x799c7ae09223e9d88ec4094072a62c3533a84965bcd7def7351b19aff13d076d",
      "transactionType": "CALL",
      "contractName": null,
      "contractAddress": "0x025774b4e49b7cb98d90111461b69af98c301cd7",
      "function": "setPolicy(bytes32,(uint256,uint256,uint24,uint24,bool,bool,address))",
      "arguments": [
        "0x8f902fdacc92a4a7b9c6d373a1a2692748d761b68fe9a2c9372b0713636923db",
        "(75, 20, 2500, 8000, true, true, 0x253a399B2A63b400f1e7f06f83Fbcc0F1236f62f)"
      ],
      "transaction": {
        "from": "0x253a399b2a63b400f1e7f06f83fbcc0f1236f62f",
        "to": "0x025774b4e49b7cb98d90111461b69af98c301cd7",
        "gas": "0x317f4",
        "value": "0x0",
        "input": "0x8437a6af8f902fdacc92a4a7b9c6d373a1a2692748d761b68fe9a2c9372b0713636923db000000000000000000000000000000000000000000000000000000000000004b000000000000000000000000000000000000000000000000000000000000001400000000000000000000000000000000000000000000000000000000000009c40000000000000000000000000000000000000000000000000000000000001f4000000000000000000000000000000000000000000000000000000000000000010000000000000000000000000000000000000000000000000000000000000001000000000000000000000000253a399b2a63b400f1e7f06f83fbcc0f1236f62f",
        "nonce": "0x20",
        "chainId": "0xc4"
      },
      "additionalContracts": [],
      "isFixedGasLimit": false
    },
    {
      "hash": "0x95cf4378cab0b37e28fdabb0b520a24a83090c0162608c61689c8cdb96593f7f",
      "transactionType": "CALL",
      "contractName": null,
      "contractAddress": "0x360e68faccca8ca495c1b759fd9eee466db9fb32",
      "function": "initialize((address,address,uint24,int24,address),uint160)",
      "arguments": [
        "(0x1E4a5963aBFD975d8c9021ce480b42188849D41d, 0x5A77f1443D16ee5761d310e38b62f77f726bC71c, 8388608, 60, 0x3D28D43FFB4ed9321B0d740B2B457E802259C0c0)",
        "1447000000000000000000000000000000"
      ],
      "transaction": {
        "from": "0x253a399b2a63b400f1e7f06f83fbcc0f1236f62f",
        "to": "0x360e68faccca8ca495c1b759fd9eee466db9fb32",
        "gas": "0x12469",
        "value": "0x0",
        "input": "0x6276cbbe0000000000000000000000001e4a5963abfd975d8c9021ce480b42188849d41d0000000000000000000000005a77f1443d16ee5761d310e38b62f77f726bc71c0000000000000000000000000000000000000000000000000000000000800000000000000000000000000000000000000000000000000000000000000000003c0000000000000000000000003d28d43ffb4ed9321b0d740b2b457e802259c0c00000000000000000000000000000000000004757b52a5d3e3eecc70fc0000000",
        "nonce": "0x21",
        "chainId": "0xc4"
      },
      "additionalContracts": [],
      "isFixedGasLimit": false
    },
    {
      "hash": "0x1af2646b985da66f5e68af5156f4236718f1683e96d21207e269e1cf8296ef14",
      "transactionType": "CALL",
      "contractName": null,
      "contractAddress": "0x025774b4e49b7cb98d90111461b69af98c301cd7",
      "function": "setPolicy(bytes32,(uint256,uint256,uint24,uint24,bool,bool,address))",
      "arguments": [
        "0x5a9e74da2155ebb698b778fedaba2ef54e40b0e415e81be96682827851700eff",
        "(80, 15, 3000, 10000, true, true, 0x253a399B2A63b400f1e7f06f83Fbcc0F1236f62f)"
      ],
      "transaction": {
        "from": "0x253a399b2a63b400f1e7f06f83fbcc0f1236f62f",
        "to": "0x025774b4e49b7cb98d90111461b69af98c301cd7",
        "gas": "0x317f4",
        "value": "0x0",
        "input": "0x8437a6af5a9e74da2155ebb698b778fedaba2ef54e40b0e415e81be96682827851700eff0000000000000000000000000000000000000000000000000000000000000050000000000000000000000000000000000000000000000000000000000000000f0000000000000000000000000000000000000000000000000000000000000bb8000000000000000000000000000000000000000000000000000000000000271000000000000000000000000000000000000000000000000000000000000000010000000000000000000000000000000000000000000000000000000000000001000000000000000000000000253a399b2a63b400f1e7f06f83fbcc0f1236f62f",
        "nonce": "0x22",
        "chainId": "0xc4"
      },
      "additionalContracts": [],
      "isFixedGasLimit": false
    },
    {
      "hash": "0x1335dc03cae7f82aa87dd35055ce5587055ce5a6bf01f45a2d35335b65d6d0a6",
      "transactionType": "CALL",
      "contractName": null,
      "contractAddress": "0x360e68faccca8ca495c1b759fd9eee466db9fb32",
      "function": "initialize((address,address,uint24,int24,address),uint160)",
      "arguments": [
        "(0x74b7F16337b8972027F6196A17a631aC6dE26d22, 0xe538905cf8410324e03A5A23C1c177a474D59b2b, 8388608, 60, 0x3D28D43FFB4ed9321B0d740B2B457E802259C0c0)",
        "11200000000000000000000000000000000"
      ],
      "transaction": {
        "from": "0x253a399b2a63b400f1e7f06f83fbcc0f1236f62f",
        "to": "0x360e68faccca8ca495c1b759fd9eee466db9fb32",
        "gas": "0x12469",
        "value": "0x0",
        "input": "0x6276cbbe00000000000000000000000074b7f16337b8972027f6196a17a631ac6de26d22000000000000000000000000e538905cf8410324e03a5a23c1c177a474d59b2b0000000000000000000000000000000000000000000000000000000000800000000000000000000000000000000000000000000000000000000000000000003c0000000000000000000000003d28d43ffb4ed9321b0d740b2b457e802259c0c00000000000000000000000000000000000022833dfcc980a7ba8c87000000000",
        "nonce": "0x23",
        "chainId": "0xc4"
      },
      "additionalContracts": [],
      "isFixedGasLimit": false
    },
    {
      "hash": "0x438116ca9819d4904cb289803da529d45f858532cb3280e633ef091eded20837",
      "transactionType": "CALL",
      "contractName": null,
      "contractAddress": "0x025774b4e49b7cb98d90111461b69af98c301cd7",
      "function": "setPolicy(bytes32,(uint256,uint256,uint24,uint24,bool,bool,address))",
      "arguments": [
        "0xb192334b574994b2e7aea853242032a86efb5af60938d97bdbc57908e1f1d838",
        "(70, 25, 3000, 12000, true, true, 0x253a399B2A63b400f1e7f06f83Fbcc0F1236f62f)"
      ],
      "transaction": {
        "from": "0x253a399b2a63b400f1e7f06f83fbcc0f1236f62f",
        "to": "0x025774b4e49b7cb98d90111461b69af98c301cd7",
        "gas": "0x317f4",
        "value": "0x0",
        "input": "0x8437a6afb192334b574994b2e7aea853242032a86efb5af60938d97bdbc57908e1f1d838000000000000000000000000000000000000000000000000000000000000004600000000000000000000000000000000000000000000000000000000000000190000000000000000000000000000000000000000000000000000000000000bb80000000000000000000000000000000000000000000000000000000000002ee000000000000000000000000000000000000000000000000000000000000000010000000000000000000000000000000000000000000000000000000000000001000000000000000000000000253a399b2a63b400f1e7f06f83fbcc0f1236f62f",
        "nonce": "0x24",
        "chainId": "0xc4"
      },
      "additionalContracts": [],
      "isFixedGasLimit": false
    }
  ],
  "receipts": [
    {
      "type": "0x0",
      "status": "0x1",
      "cumulativeGasUsed": "0x9c8d3",
      "logs": [
        {
          "address": "0x360e68faccca8ca495c1b759fd9eee466db9fb32",
          "topics": [
            "0xdd466e674ea557f56295e2d0218a125ea4b4f0f6f3307b95f85e6110838d6438",
            "0xa42ef95993739b4b4fa31f493b8e6fe2ecfdaa946a9eda3cf820d641e247bcb1",
            "0x0000000000000000000000005a77f1443d16ee5761d310e38b62f77f726bc71c",
            "0x00000000000000000000000074b7f16337b8972027f6196a17a631ac6de26d22"
          ],
          "data": "0x0000000000000000000000000000000000000000000000000000000000800000000000000000000000000000000000000000000000000000000000000000003c0000000000000000000000003d28d43ffb4ed9321b0d740b2b457e802259c0c00000000000000000000000000000000000000000000396ed0a5a9bfc60214000fffffffffffffffffffffffffffffffffffffffffffffffffffffffffffd015f",
          "blockHash": "0x7a34fd6fb1787b2077d9f201cab87583e464fab5386026f746d865949e55bca9",
          "blockNumber": "0x39f6569",
          "blockTimestamp": "0x6a11baf5",
          "transactionHash": "0x85f62aabadc590e1c73567f7403c5e81ddd57b4e5dba1c798052a31852c70328",
          "transactionIndex": "0x2",
          "logIndex": "0x1b",
          "removed": false
        }
      ],
      "logsBloom": "0x00000000000000000000000000000000000000000000000000000000000000000000000000000000000000000000000000000000000000000000000000000000000000000000000001000000000000000000000000000000000000000000000000000000000000000000002000000000000000000000000000000000000000000002000800000008000000000000000000000001000000000000000000200000000000000000000000000000000000000000000000000000000000000000000000008000000000000000000000000000000004000000000000000000000000000108000001020000000000000000000000000000000000000000002000000008",
      "transactionHash": "0x85f62aabadc590e1c73567f7403c5e81ddd57b4e5dba1c798052a31852c70328",
      "transactionIndex": "0x2",
      "blockHash": "0x7a34fd6fb1787b2077d9f201cab87583e464fab5386026f746d865949e55bca9",
      "blockNumber": "0x39f6569",
      "gasUsed": "0xcb91",
      "effectiveGasPrice": "0x1312d01",
      "blobGasUsed": "0xdc50",
      "from": "0x253a399b2a63b400f1e7f06f83fbcc0f1236f62f",
      "to": "0x360e68faccca8ca495c1b759fd9eee466db9fb32",
      "contractAddress": null
    },
    {
      "type": "0x0",
      "status": "0x1",
      "cumulativeGasUsed": "0xbe655",
      "logs": [
        {
          "address": "0x025774b4e49b7cb98d90111461b69af98c301cd7",
          "topics": [
            "0x4796626372633c5d33077ba956a4f0c5e8574bcdfee92d39537c1e9e7089dac5",
            "0xa42ef95993739b4b4fa31f493b8e6fe2ecfdaa946a9eda3cf820d641e247bcb1",
            "0x000000000000000000000000253a399b2a63b400f1e7f06f83fbcc0f1236f62f"
          ],
          "data": "0x0000000000000000000000000000000000000000000000000000000000000001",
          "blockHash": "0x7a34fd6fb1787b2077d9f201cab87583e464fab5386026f746d865949e55bca9",
          "blockNumber": "0x39f6569",
          "blockTimestamp": "0x6a11baf5",
          "transactionHash": "0x9033953521bcbbf0f8b2d86a15514dae5bb3f2ca6c8e0af702b94a5f654e5ad4",
          "transactionIndex": "0x3",
          "logIndex": "0x1c",
          "removed": false
        }
      ],
      "logsBloom": "0x00000000000000000000000000000000001000000000000000000000000000000000000000000000000000000000000000000000000000000000000000000000000000000000000000000000000000000000000000000000000000000000000000000000000000000000000000000000000000000000000000080000000000000000000800000000000000000000100000000000000000000000000000000000000000000000000000000000000010000000000000000000000000000000000000008000000000000000000800000000000000000000000000000004000020000008000000000000000000000008000000000000000000000000200000000000",
      "transactionHash": "0x9033953521bcbbf0f8b2d86a15514dae5bb3f2ca6c8e0af702b94a5f654e5ad4",
      "transactionIndex": "0x3",
      "blockHash": "0x7a34fd6fb1787b2077d9f201cab87583e464fab5386026f746d865949e55bca9",
      "blockNumber": "0x39f6569",
      "gasUsed": "0x21d82",
      "effectiveGasPrice": "0x1312d01",
      "blobGasUsed": "0xd160",
      "from": "0x253a399b2a63b400f1e7f06f83fbcc0f1236f62f",
      "to": "0x025774b4e49b7cb98d90111461b69af98c301cd7",
      "contractAddress": null
    },
    {
      "type": "0x0",
      "status": "0x1",
      "cumulativeGasUsed": "0xcb1de",
      "logs": [
        {
          "address": "0x360e68faccca8ca495c1b759fd9eee466db9fb32",
          "topics": [
            "0xdd466e674ea557f56295e2d0218a125ea4b4f0f6f3307b95f85e6110838d6438",
            "0x8f902fdacc92a4a7b9c6d373a1a2692748d761b68fe9a2c9372b0713636923db",
            "0x00000000000000000000000074b7f16337b8972027f6196a17a631ac6de26d22",
            "0x000000000000000000000000ea034fb02eb1808c2cc3adbc15f447b93cbe08e1"
          ],
          "data": "0x0000000000000000000000000000000000000000000000000000000000800000000000000000000000000000000000000000000000000000000000000000003c0000000000000000000000003d28d43ffb4ed9321b0d740b2b457e802259c0c000000000000000000000000000000000000000000019540986acdf1009800000fffffffffffffffffffffffffffffffffffffffffffffffffffffffffffd9a07",
          "blockHash": "0x7a34fd6fb1787b2077d9f201cab87583e464fab5386026f746d865949e55bca9",
          "blockNumber": "0x39f6569",
          "blockTimestamp": "0x6a11baf5",
          "transactionHash": "0xc1a93b1cae72255d1436acfa4c5696396a38f67b133b550c6abfcfcb95f42ce5",
          "transactionIndex": "0x4",
          "logIndex": "0x1d",
          "removed": false
        }
      ],
      "logsBloom": "0x00000000000000000000000000000000000000000000000000000000000000000000000000000000002000000000000000000000000000000000000000000000000000000000000001000000000000000000000000000000000000000000000000000000000000000002000000000000000000000000000000000000000000000002000000000008000000000000000000000001000000000000000000200000000000000000001000000000000000000000000000000000000000008000000000000000000000000000000200000000000004000000000000000000000000000000000000020000000000100000000000000000000000000000002000000008",
      "transactionHash": "0xc1a93b1cae72255d1436acfa4c5696396a38f67b133b550c6abfcfcb95f42ce5",
      "transactionIndex": "0x4",
      "blockHash": "0x7a34fd6fb1787b2077d9f201cab87583e464fab5386026f746d865949e55bca9",
      "blockNumber": "0x39f6569",
      "gasUsed": "0xcb89",
      "effectiveGasPrice": "0x1312d01",
      "blobGasUsed": "0xdc50",
      "from": "0x253a399b2a63b400f1e7f06f83fbcc0f1236f62f",
      "to": "0x360e68faccca8ca495c1b759fd9eee466db9fb32",
      "contractAddress": null
    },
    {
      "type": "0x0",
      "status": "0x1",
      "cumulativeGasUsed": "0x314a8",
      "logs": [
        {
          "address": "0x025774b4e49b7cb98d90111461b69af98c301cd7",
          "topics": [
            "0x4796626372633c5d33077ba956a4f0c5e8574bcdfee92d39537c1e9e7089dac5",
            "0x8f902fdacc92a4a7b9c6d373a1a2692748d761b68fe9a2c9372b0713636923db",
            "0x000000000000000000000000253a399b2a63b400f1e7f06f83fbcc0f1236f62f"
          ],
          "data": "0x0000000000000000000000000000000000000000000000000000000000000001",
          "blockHash": "0x4240244578934fb857edc42138c061ac0669d7cfc0c0124d0ff399ec02be0794",
          "blockNumber": "0x39f656a",
          "blockTimestamp": "0x6a11baf6",
          "transactionHash": "0x438116ca9819d4904cb289803da529d45f858532cb3280e633ef091eded20837",
          "transactionIndex": "0x1",
          "logIndex": "0x0",
          "removed": false
        }
      ],
      "logsBloom": "0x00000000000000000000000000000000001000000000000000000000000000000000000000000000000000000000000000000000000000000000000000000000000000000000000000000000000000000000000000000000000000000000000000000000000000000000000000000000000000000000000000080000000000000000000000000000000000000000100000000000000000000000000000000000000000000000001000000000000010000000000000000000000000008000000000000000000000000000000800000000000000000000000000000004000020000000000000000000000000100008000000000000000000000000200000000000",
      "transactionHash": "0x438116ca9819d4904cb289803da529d45f858532cb3280e633ef091eded20837",
      "transactionIndex": "0x1",
      "blockHash": "0x4240244578934fb857edc42138c061ac0669d7cfc0c0124d0ff399ec02be0794",
      "blockNumber": "0x39f656a",
      "gasUsed": "0x21d82",
      "effectiveGasPrice": "0x1312d01",
      "blobGasUsed": "0xd160",
      "from": "0x253a399b2a63b400f1e7f06f83fbcc0f1236f62f",
      "to": "0x025774b4e49b7cb98d90111461b69af98c301cd7",
      "contractAddress": null
    },
    {
      "type": "0x0",
      "status": "0x1",
      "cumulativeGasUsed": "0x3dc99",
      "logs": [
        {
          "address": "0x360e68faccca8ca495c1b759fd9eee466db9fb32",
          "topics": [
            "0xdd466e674ea557f56295e2d0218a125ea4b4f0f6f3307b95f85e6110838d6438",
            "0x5a9e74da2155ebb698b778fedaba2ef54e40b0e415e81be96682827851700eff",
            "0x0000000000000000000000001e4a5963abfd975d8c9021ce480b42188849d41d",
            "0x0000000000000000000000005a77f1443d16ee5761d310e38b62f77f726bc71c"
          ],
          "data": "0x0000000000000000000000000000000000000000000000000000000000800000000000000000000000000000000000000000000000000000000000000000003c0000000000000000000000003d28d43ffb4ed9321b0d740b2b457e802259c0c00000000000000000000000000000000000004757b52a5d3e3eecc70fc0000000000000000000000000000000000000000000000000000000000000000002fea7",
          "blockHash": "0xb532e44152bfb191519c968bae811c526898df34d7e129a65ea39cb7a2c623bd",
          "blockNumber": "0x39f656a",
          "blockTimestamp": "0x6a11baf6",
          "transactionHash": "0x799c7ae09223e9d88ec4094072a62c3533a84965bcd7def7351b19aff13d076d",
          "transactionIndex": "0x2",
          "logIndex": "0x1",
          "removed": false
        }
      ],
      "logsBloom": "0x00000000000010000000000000000000000000000000000000000000000000040000000000000000000000000000000000000000000000000000000000000000000000000000000001000000000000000000400000000000000000000000000000000000000000000000002000000004000000000000000000000000000000000040000000000008000000000000000000000001000000000000000000200000000000002000000000000000000000000000000000000000000000000000000000000000000000000000000000000000000004000000000000000000000000000100000001000000000000000000000000000000000000000000000000000008",
      "transactionHash": "0x799c7ae09223e9d88ec4094072a62c3533a84965bcd7def7351b19aff13d076d",
      "transactionIndex": "0x2",
      "blockHash": "0xb532e44152bfb191519c968bae811c526898df34d7e129a65ea39cb7a2c623bd",
      "blockNumber": "0x39f656a",
      "gasUsed": "0xc7f1",
      "effectiveGasPrice": "0x1312d01",
      "blobGasUsed": "0xdf70",
      "from": "0x253a399b2a63b400f1e7f06f83fbcc0f1236f62f",
      "to": "0x360e68faccca8ca495c1b759fd9eee466db9fb32",
      "contractAddress": null
    },
    {
      "type": "0x0",
      "status": "0x1",
      "cumulativeGasUsed": "0x5fa1b",
      "logs": [
        {
          "address": "0x025774b4e49b7cb98d90111461b69af98c301cd7",
          "topics": [
            "0x4796626372633c5d33077ba956a4f0c5e8574bcdfee92d39537c1e9e7089dac5",
            "0x5a9e74da2155ebb698b778fedaba2ef54e40b0e415e81be96682827851700eff",
            "0x000000000000000000000000253a399b2a63b400f1e7f06f83fbcc0f1236f62f"
          ],
          "data": "0x0000000000000000000000000000000000000000000000000000000000000001",
          "blockHash": "0x4240244578934fb857edc42138c061ac0669d7cfc0c0124d0ff399ec02be0794",
          "blockNumber": "0x39f656a",
          "blockTimestamp": "0x6a11baf6",
          "transactionHash": "0x1af2646b985da66f5e68af5156f4236718f1683e96d21207e269e1cf8296ef14",
          "transactionIndex": "0x3",
          "logIndex": "0x2",
          "removed": false
        }
      ],
      "logsBloom": "0x00000000000010000000000000000000001000000000000000000000000000000000000000000000000000000000000000000000000000000000000000000000000000000000000000000000000000000000400000000000000000000000000000000000000000000000000000000000000000000000000000080000000000000040000000000000000000000000100000000000000000000000000000000000000000000000000000000000000010000000000000000000000000000000000000000000000000000000000800000000000000000000000000000004000020000000000000000000000000000008000000000000000000000000200000000000",
      "transactionHash": "0x1af2646b985da66f5e68af5156f4236718f1683e96d21207e269e1cf8296ef14",
      "transactionIndex": "0x3",
      "blockHash": "0x4240244578934fb857edc42138c061ac0669d7cfc0c0124d0ff399ec02be0794",
      "blockNumber": "0x39f656a",
      "gasUsed": "0x21d82",
      "effectiveGasPrice": "0x1312d01",
      "blobGasUsed": "0xd160",
      "from": "0x253a399b2a63b400f1e7f06f83fbcc0f1236f62f",
      "to": "0x025774b4e49b7cb98d90111461b69af98c301cd7",
      "contractAddress": null
    },
    {
      "type": "0x0",
      "status": "0x1",
      "cumulativeGasUsed": "0x6c20c",
      "logs": [
        {
          "address": "0x360e68faccca8ca495c1b759fd9eee466db9fb32",
          "topics": [
            "0xdd466e674ea557f56295e2d0218a125ea4b4f0f6f3307b95f85e6110838d6438",
            "0xb192334b574994b2e7aea853242032a86efb5af60938d97bdbc57908e1f1d838",
            "0x00000000000000000000000074b7f16337b8972027f6196a17a631ac6de26d22",
            "0x000000000000000000000000e538905cf8410324e03a5a23c1c177a474d59b2b"
          ],
          "data": "0x0000000000000000000000000000000000000000000000000000000000800000000000000000000000000000000000000000000000000000000000000000003c0000000000000000000000003d28d43ffb4ed9321b0d740b2b457e802259c0c00000000000000000000000000000000000022833dfcc980a7ba8c870000000000000000000000000000000000000000000000000000000000000000000039e89",
          "blockHash": "0x4240244578934fb857edc42138c061ac0669d7cfc0c0124d0ff399ec02be0794",
          "blockNumber": "0x39f656a",
          "blockTimestamp": "0x6a11baf6",
          "transactionHash": "0x1335dc03cae7f82aa87dd35055ce5587055ce5a6bf01f45a2d35335b65d6d0a6",
          "transactionIndex": "0x4",
          "logIndex": "0x3",
          "removed": false
        }
      ],
      "logsBloom": "0x00000000000000200000000000000000000000000000000000000000000000000000000020000000000000000000000000000000000000000000000000000000000000000000000001000000000000000000000000000000000000000000000000400000000000000000000000000000000000000000000000000000000000000002000000000008000000000000000000000001000800000000000000200000000000000000000000000000000004000000000000000000000000000000000000000000000000000000000000000000000004000000000000000000000000000000000000020000000000000000000000000000000000000000002000000048",
      "transactionHash": "0x1335dc03cae7f82aa87dd35055ce5587055ce5a6bf01f45a2d35335b65d6d0a6",
      "transactionIndex": "0x4",
      "blockHash": "0x4240244578934fb857edc42138c061ac0669d7cfc0c0124d0ff399ec02be0794",
      "blockNumber": "0x39f656a",
      "gasUsed": "0xc7f1",
      "effectiveGasPrice": "0x1312d01",
      "blobGasUsed": "0xdf70",
      "from": "0x253a399b2a63b400f1e7f06f83fbcc0f1236f62f",
      "to": "0x360e68faccca8ca495c1b759fd9eee466db9fb32",
      "contractAddress": null
    },
    {
      "type": "0x0",
      "status": "0x1",
      "cumulativeGasUsed": "0x8df8e",
      "logs": [
        {
          "address": "0x025774b4e49b7cb98d90111461b69af98c301cd7",
          "topics": [
            "0x4796626372633c5d33077ba956a4f0c5e8574bcdfee92d39537c1e9e7089dac5",
            "0xb192334b574994b2e7aea853242032a86efb5af60938d97bdbc57908e1f1d838",
            "0x000000000000000000000000253a399b2a63b400f1e7f06f83fbcc0f1236f62f"
          ],
          "data": "0x0000000000000000000000000000000000000000000000000000000000000001",
          "blockHash": "0x4240244578934fb857edc42138c061ac0669d7cfc0c0124d0ff399ec02be0794",
          "blockNumber": "0x39f656a",
          "blockTimestamp": "0x6a11baf6",
          "transactionHash": "0x95cf4378cab0b37e28fdabb0b520a24a83090c0162608c61689c8cdb96593f7f",
          "transactionIndex": "0x5",
          "logIndex": "0x4",
          "removed": false
        }
      ],
      "logsBloom": "0x00000000000000000000000000000000001000000000000000000000000000000000000020000000000000000000000000000000000000000000000000000000000000000000000000000000000000000000000000000000000000000000000000400000000000000000000000000000000000000000000000080000000000000000000000000000000000000000100000000000000000000000000000000000000000000000000000000000000010000000000000000000000000000000000000000000000000000000000800000000000000000000000000000004000020000000000000000000000000000008000000000000000000000000200000000040",
      "transactionHash": "0x95cf4378cab0b37e28fdabb0b520a24a83090c0162608c61689c8cdb96593f7f",
      "transactionIndex": "0x5",
      "blockHash": "0x4240244578934fb857edc42138c061ac0669d7cfc0c0124d0ff399ec02be0794",
      "blockNumber": "0x39f656a",
      "gasUsed": "0x21d82",
      "effectiveGasPrice": "0x1312d01",
      "blobGasUsed": "0xd160",
      "from": "0x253a399b2a63b400f1e7f06f83fbcc0f1236f62f",
      "to": "0x025774b4e49b7cb98d90111461b69af98c301cd7",
      "contractAddress": null
    }
  ],
  "libraries": [],
  "pending": [],
  "returns": {},
  "timestamp": 1779546870543,
  "chain": 196,
  "commit": null
}