{
  "transactions": [
    {
      "hash": "0x9d56fc319aa2c0da730beb78b1c049ba32c0f72000b3459114091525d8c22514",
      "transactionType": "CALL",
      "contractName": null,
      "contractAddress": "0x4400ef976ba88155eed71dce66e40daeff83e701",
      "function": "publishSignal((bytes32,bytes32,uint256,uint256,uint256,uint256,uint24,uint64,address))",
      "arguments": [
        "(0x4ab133b22f88f34621a7a2002ba4eab0b62619611abf21f26d893fc381ffd7cb, 0x18fbbb40daeac99fc85ad9124752e140792a9874f1ed2a159d925da9647aa54d, 35, 72, 80, 25, 2500, 1779547435, 0x253a399B2A63b400f1e7f06f83Fbcc0F1236f62f)"
      ],
      "transaction": {
        "from": "0x253a399b2a63b400f1e7f06f83fbcc0f1236f62f",
        "to": "0x4400ef976ba88155eed71dce66e40daeff83e701",
        "gas": "0x49fb7",
        "value": "0x0",
        "input": "0xbef3c2804ab133b22f88f34621a7a2002ba4eab0b62619611abf21f26d893fc381ffd7cb18fbbb40daeac99fc85ad9124752e140792a9874f1ed2a159d925da9647aa54d000000000000000000000000000000000000000000000000000000000000002300000000000000000000000000000000000000000000000000000000000000480000000000000000000000000000000000000000000000000000000000000050000000000000000000000000000000000000000000000000000000000000001900000000000000000000000000000000000000000000000000000000000009c4000000000000000000000000000000000000000000000000000000006a11bd2b000000000000000000000000253a399b2a63b400f1e7f06f83fbcc0f1236f62f",
        "nonce": "0xa",
        "chainId": "0xc4"
      },
      "additionalContracts": [],
      "isFixedGasLimit": false
    }
  ],
  "receipts": [
    {
      "type": "0x0",
      "status": "0x1",
      "cumulativeGasUsed": "0x17445b",
      "logs": [
        {
          "address": "0x4400ef976ba88155eed71dce66e40daeff83e701",
          "topics": [
            "0x0face291eef5c87612364bee04388acc5d3b3fdd67696755ef1354fd31145622",
            "0x4ab133b22f88f34621a7a2002ba4eab0b62619611abf21f26d893fc381ffd7cb",
            "0x18fbbb40daeac99fc85ad9124752e140792a9874f1ed2a159d925da9647aa54d"
          ],
          "data": "0x0000000000000000000000000000000000000000000000000000000000000023000000000000000000000000000000000000000000000000000000000000004800000000000000000000000000000000000000000000000000000000000009c4000000000000000000000000253a399b2a63b400f1e7f06f83fbcc0f1236f62f",
          "blockHash": "0xb8019f4471fef09e8fb8fb074101d2349a7ad5ea545225f1063e15360375d8a7",
          "blockNumber": "0x39f59b0",
          "blockTimestamp": "0x6a11af3c",
          "transactionHash": "0x9d56fc319aa2c0da730beb78b1c049ba32c0f72000b3459114091525d8c22514",
          "transactionIndex": "0xa",
          "logIndex": "0x3c",
          "removed": false
        }
      ],
      "logsBloom": "0x00000002000000000000000000000000000000000000000000000000000000400000000000000000000000000000000000000000000000000000000002000000000000000000000000000000000040000000000000000000100200000000000000000000000000000000000000080000000000000000000000000000000000000000000000004000000000000000000000000000000000000000000000000000020000000004000000000000000000000000000000000000000000000002000000000000000000000000000000000000000000000000000000000000000000000000000000000000000000000000000000000000400000000000000000000000",
      "transactionHash": "0x9d56fc319aa2c0da730beb78b1c049ba32c0f72000b3459114091525d8c22514",
      "transactionIndex": "0xa",
      "blockHash": "0xb8019f4471fef09e8fb8fb074101d2349a7ad5ea545225f1063e15360375d8a7",
      "blockNumber": "0x39f59b0",
      "gasUsed": "0x32961",
      "effectiveGasPrice": "0x1312d01",
      "blobGasUsed": "0x10360",
      "from": "0x253a399b2a63b400f1e7f06f83fbcc0f1236f62f",
      "to": "0x4400ef976ba88155eed71dce66e40daeff83e701",
      "contractAddress": null
    }
  ],
  "libraries": [],
  "pending": [],
  "returns": {},
  "timestamp": 1779543868092,
  "chain": 196,
  "commit": null
}