{
  "transactions": [
    {
      "hash": "0xe55ec44eb0bea0c3541481949263240c97263fdaf48b6022ed2e5d0d6e2f4ee4",
      "transactionType": "CALL",
      "contractName": null,
      "contractAddress": "0x4400ef976ba88155eed71dce66e40daeff83e701",
      "function": "publishSignal((bytes32,bytes32,uint256,uint256,uint256,uint256,uint24,uint64,address))",
      "arguments": [
        "(0xea4b8f0b93511a6870311076fdbc53e5a942d026ecd12afb9b5101ed48e271f7, 0x04e9effc458bfd24b03b19aa526dbccee03b83001dcee5895aa12bdb7deeb57d, 42, 81, 90, 55, 2000, 1779552095, 0x253a399B2A63b400f1e7f06f83Fbcc0F1236f62f)"
      ],
      "transaction": {
        "from": "0x253a399b2a63b400f1e7f06f83fbcc0f1236f62f",
        "to": "0x4400ef976ba88155eed71dce66e40daeff83e701",
        "gas": "0x49fb7",
        "value": "0x0",
        "input": "0xbef3c280ea4b8f0b93511a6870311076fdbc53e5a942d026ecd12afb9b5101ed48e271f704e9effc458bfd24b03b19aa526dbccee03b83001dcee5895aa12bdb7deeb57d000000000000000000000000000000000000000000000000000000000000002a0000000000000000000000000000000000000000000000000000000000000051000000000000000000000000000000000000000000000000000000000000005a000000000000000000000000000000000000000000000000000000000000003700000000000000000000000000000000000000000000000000000000000007d0000000000000000000000000000000000000000000000000000000006a11cf5f000000000000000000000000253a399b2a63b400f1e7f06f83fbcc0f1236f62f",
        "nonce": "0x13",
        "chainId": "0xc4"
      },
      "additionalContracts": [],
      "isFixedGasLimit": false
    },
    {
      "hash": "0x579eafe8ae234706682f7b8989be658d860e7343a8168f17143661a90ac5bca3",
      "transactionType": "CALL",
      "contractName": null,
      "contractAddress": "0x4400ef976ba88155eed71dce66e40daeff83e701",
      "function": "publishSignal((bytes32,bytes32,uint256,uint256,uint256,uint256,uint24,uint64,address))",
      "arguments": [
        "(0x1662037423ae4d370f18fe8abb21fd67e50da136d847e3526ab6cf165ce188f2, 0x6d79dfd7f52ea40736f8d2a62e9335c23fd9d6a0032de76283f5e8d646cfb759, 28, 55, 95, 30, 1500, 1779552095, 0x253a399B2A63b400f1e7f06f83Fbcc0F1236f62f)"
      ],
      "transaction": {
        "from": "0x253a399b2a63b400f1e7f06f83fbcc0f1236f62f",
        "to": "0x4400ef976ba88155eed71dce66e40daeff83e701",
        "gas": "0x45e03",
        "value": "0x0",
        "input": "0xbef3c2801662037423ae4d370f18fe8abb21fd67e50da136d847e3526ab6cf165ce188f26d79dfd7f52ea40736f8d2a62e9335c23fd9d6a0032de76283f5e8d646cfb759000000000000000000000000000000000000000000000000000000000000001c0000000000000000000000000000000000000000000000000000000000000037000000000000000000000000000000000000000000000000000000000000005f000000000000000000000000000000000000000000000000000000000000001e00000000000000000000000000000000000000000000000000000000000005dc000000000000000000000000000000000000000000000000000000006a11cf5f000000000000000000000000253a399b2a63b400f1e7f06f83fbcc0f1236f62f",
        "nonce": "0x14",
        "chainId": "0xc4"
      },
      "additionalContracts": [],
      "isFixedGasLimit": false
    },
    {
      "hash": "0xc9d986e832c7ff08af077efdc8ceb5a14de8ba477898c7de161d37d6b9231bf0",
      "transactionType": "CALL",
      "contractName": null,
      "contractAddress": "0x4400ef976ba88155eed71dce66e40daeff83e701",
      "function": "publishSignal((bytes32,bytes32,uint256,uint256,uint256,uint256,uint24,uint64,address))",
      "arguments": [
        "(0x626308c7877b69246960f5650eb65bea3d4bfd9c158a921e5a7ab51573a6261d, 0x86e8639d2a670d6062c5d18de278e9d7b27ebda30c6fa60b662c743adec6d043, 72, 35, 60, 85, 7500, 1779552095, 0x253a399B2A63b400f1e7f06f83Fbcc0F1236f62f)"
      ],
      "transaction": {
        "from": "0x253a399b2a63b400f1e7f06f83fbcc0f1236f62f",
        "to": "0x4400ef976ba88155eed71dce66e40daeff83e701",
        "gas": "0x45e03",
        "value": "0x0",
        "input": "0xbef3c280626308c7877b69246960f5650eb65bea3d4bfd9c158a921e5a7ab51573a6261d86e8639d2a670d6062c5d18de278e9d7b27ebda30c6fa60b662c743adec6d04300000000000000000000000000000000000000000000000000000000000000480000000000000000000000000000000000000000000000000000000000000023000000000000000000000000000000000000000000000000000000000000003c00000000000000000000000000000000000000000000000000000000000000550000000000000000000000000000000000000000000000000000000000001d4c000000000000000000000000000000000000000000000000000000006a11cf5f000000000000000000000000253a399b2a63b400f1e7f06f83fbcc0f1236f62f",
        "nonce": "0x15",
        "chainId": "0xc4"
      },
      "additionalContracts": [],
      "isFixedGasLimit": false
    },
    {
      "hash": "0xdbd7a7f2293dc14b0c175cf8b8e6401c12ff3337773f26470701dc48e9c3de40",
      "transactionType": "CALL",
      "contractName": null,
      "contractAddress": "0x4400ef976ba88155eed71dce66e40daeff83e701",
      "function": "publishSignal((bytes32,bytes32,uint256,uint256,uint256,uint256,uint24,uint64,address))",
      "arguments": [
        "(0x9a6f1873a8fce375d4fa0bdd181bf75f257f12ca4bea26eb061cb8a1bdaf9dc2, 0x26557499cc8c660efebddad4483b540493bdcc7c0c6b208a3b3c6ef6a56b5ae3, 30, 78, 70, 40, 2000, 1779552095, 0x253a399B2A63b400f1e7f06f83Fbcc0F1236f62f)"
      ],
      "transaction": {
        "from": "0x253a399b2a63b400f1e7f06f83fbcc0f1236f62f",
        "to": "0x4400ef976ba88155eed71dce66e40daeff83e701",
        "gas": "0x45e03",
        "value": "0x0",
        "input": "0xbef3c2809a6f1873a8fce375d4fa0bdd181bf75f257f12ca4bea26eb061cb8a1bdaf9dc226557499cc8c660efebddad4483b540493bdcc7c0c6b208a3b3c6ef6a56b5ae3000000000000000000000000000000000000000000000000000000000000001e000000000000000000000000000000000000000000000000000000000000004e0000000000000000000000000000000000000000000000000000000000000046000000000000000000000000000000000000000000000000000000000000002800000000000000000000000000000000000000000000000000000000000007d0000000000000000000000000000000000000000000000000000000006a11cf5f000000000000000000000000253a399b2a63b400f1e7f06f83fbcc0f1236f62f",
        "nonce": "0x16",
        "chainId": "0xc4"
      },
      "additionalContracts": [],
      "isFixedGasLimit": false
    }
  ],
  "receipts": [
    {
      "type": "0x0",
      "status": "0x1",
      "cumulativeGasUsed": "0x3ddbb",
      "logs": [
        {
          "address": "0x4400ef976ba88155eed71dce66e40daeff83e701",
          "topics": [
            "0x0face291eef5c87612364bee04388acc5d3b3fdd67696755ef1354fd31145622",
            "0xea4b8f0b93511a6870311076fdbc53e5a942d026ecd12afb9b5101ed48e271f7",
            "0x04e9effc458bfd24b03b19aa526dbccee03b83001dcee5895aa12bdb7deeb57d"
          ],
          "data": "0x000000000000000000000000000000000000000000000000000000000000002a000000000000000000000000000000000000000000000000000000000000005100000000000000000000000000000000000000000000000000000000000007d0000000000000000000000000253a399b2a63b400f1e7f06f83fbcc0f1236f62f",
          "blockHash": "0xf88f48c29c4b890b3505ec8501fd4aef7f657a9c564dd04bd3f80bc6276847a1",
          "blockNumber": "0x39f5dd8",
          "blockTimestamp": "0x6a11b364",
          "transactionHash": "0xc9d986e832c7ff08af077efdc8ceb5a14de8ba477898c7de161d37d6b9231bf0",
          "transactionIndex": "0x1",
          "logIndex": "0x0",
          "removed": false
        }
      ],
      "logsBloom": "0x00000000000000000000000000000000000000000000000000020000000000000000004000000000000000000000000000000000000000000000000000000000000000000000000000000000000000000000000000000004100200000000000000000000000040000000000000080000000000000000000000000000000000000000000000000000000000000000000000000000000000000000000000000000020000000004000000000000000000000000000000000000000000000000000000000000000000000000000000000000000000000000000000000000000000000000000100000000000000000000000000000008400000000000000000000000",
      "transactionHash": "0xc9d986e832c7ff08af077efdc8ceb5a14de8ba477898c7de161d37d6b9231bf0",
      "transactionIndex": "0x1",
      "blockHash": "0xf88f48c29c4b890b3505ec8501fd4aef7f657a9c564dd04bd3f80bc6276847a1",
      "blockNumber": "0x39f5dd8",
      "gasUsed": "0x32961",
      "effectiveGasPrice": "0x1312d01",
      "blobGasUsed": "0x10360",
      "from": "0x253a399b2a63b400f1e7f06f83fbcc0f1236f62f",
      "to": "0x4400ef976ba88155eed71dce66e40daeff83e701",
      "contractAddress": null
    },
    {
      "type": "0x0",
      "status": "0x1",
      "cumulativeGasUsed": "0x70728",
      "logs": [
        {
          "address": "0x4400ef976ba88155eed71dce66e40daeff83e701",
          "topics": [
            "0x0face291eef5c87612364bee04388acc5d3b3fdd67696755ef1354fd31145622",
            "0x1662037423ae4d370f18fe8abb21fd67e50da136d847e3526ab6cf165ce188f2",
            "0x6d79dfd7f52ea40736f8d2a62e9335c23fd9d6a0032de76283f5e8d646cfb759"
          ],
          "data": "0x000000000000000000000000000000000000000000000000000000000000001c000000000000000000000000000000000000000000000000000000000000003700000000000000000000000000000000000000000000000000000000000005dc000000000000000000000000253a399b2a63b400f1e7f06f83fbcc0f1236f62f",
          "blockHash": "0xf88f48c29c4b890b3505ec8501fd4aef7f657a9c564dd04bd3f80bc6276847a1",
          "blockNumber": "0x39f5dd8",
          "blockTimestamp": "0x6a11b364",
          "transactionHash": "0xdbd7a7f2293dc14b0c175cf8b8e6401c12ff3337773f26470701dc48e9c3de40",
          "transactionIndex": "0x2",
          "logIndex": "0x1",
          "removed": false
        }
      ],
      "logsBloom": "0x00000000004000000000000000000000000000000000000000000000000000000000000000000000000000000000000000000000000000000000000010000000000000000000000000000000000000000000000000000000100200000000000000000000000000000000000000080000000000000000000000000000000000000000000000000000000000000000000000000000000000000000000000000000020000000004000000000000000000000000000000000000000000000000000000000000000000000020000000000000000000000000000000000000000000000000400000000000000000000000000000000000400000020000000000000000",
      "transactionHash": "0xdbd7a7f2293dc14b0c175cf8b8e6401c12ff3337773f26470701dc48e9c3de40",
      "transactionIndex": "0x2",
      "blockHash": "0xf88f48c29c4b890b3505ec8501fd4aef7f657a9c564dd04bd3f80bc6276847a1",
      "blockNumber": "0x39f5dd8",
      "gasUsed": "0x3296d",
      "effectiveGasPrice": "0x1312d01",
      "blobGasUsed": "0x10040",
      "from": "0x253a399b2a63b400f1e7f06f83fbcc0f1236f62f",
      "to": "0x4400ef976ba88155eed71dce66e40daeff83e701",
      "contractAddress": null
    },
    {
      "type": "0x0",
      "status": "0x1",
      "cumulativeGasUsed": "0xa3095",
      "logs": [
        {
          "address": "0x4400ef976ba88155eed71dce66e40daeff83e701",
          "topics": [
            "0x0face291eef5c87612364bee04388acc5d3b3fdd67696755ef1354fd31145622",
            "0x626308c7877b69246960f5650eb65bea3d4bfd9c158a921e5a7ab51573a6261d",
            "0x86e8639d2a670d6062c5d18de278e9d7b27ebda30c6fa60b662c743adec6d043"
          ],
          "data": "0x000000000000000000000000000000000000000000000000000000000000004800000000000000000000000000000000000000000000000000000000000000230000000000000000000000000000000000000000000000000000000000001d4c000000000000000000000000253a399b2a63b400f1e7f06f83fbcc0f1236f62f",
          "blockHash": "0xf88f48c29c4b890b3505ec8501fd4aef7f657a9c564dd04bd3f80bc6276847a1",
          "blockNumber": "0x39f5dd8",
          "blockTimestamp": "0x6a11b364",
          "transactionHash": "0x579eafe8ae234706682f7b8989be658d860e7343a8168f17143661a90ac5bca3",
          "transactionIndex": "0x3",
          "logIndex": "0x2",
          "removed": false
        }
      ],
      "logsBloom": "0x00000000000000000000000000000000000000000000000000800000000000000000000000000000000000000000000000000000000000000000000000000000000000000000000000000000000000000000000000000000100200000000000000000000000000000000000000080200000000000000000000000000000000000000000000002000000000000000000000000000000000000000000000000000020000000004000000008000000000000000000000000000000000000000000000000000000000000000000000000000000000000000000000000000000000000002000000000000000000000000000000000000400000000000200000000000",
      "transactionHash": "0x579eafe8ae234706682f7b8989be658d860e7343a8168f17143661a90ac5bca3",
      "transactionIndex": "0x3",
      "blockHash": "0xf88f48c29c4b890b3505ec8501fd4aef7f657a9c564dd04bd3f80bc6276847a1",
      "blockNumber": "0x39f5dd8",
      "gasUsed": "0x3296d",
      "effectiveGasPrice": "0x1312d01",
      "blobGasUsed": "0x10360",
      "from": "0x253a399b2a63b400f1e7f06f83fbcc0f1236f62f",
      "to": "0x4400ef976ba88155eed71dce66e40daeff83e701",
      "contractAddress": null
    },
    {
      "type": "0x0",
      "status": "0x1",
      "cumulativeGasUsed": "0xd5a02",
      "logs": [
        {
          "address": "0x4400ef976ba88155eed71dce66e40daeff83e701",
          "topics": [
            "0x0face291eef5c87612364bee04388acc5d3b3fdd67696755ef1354fd31145622",
            "0x9a6f1873a8fce375d4fa0bdd181bf75f257f12ca4bea26eb061cb8a1bdaf9dc2",
            "0x26557499cc8c660efebddad4483b540493bdcc7c0c6b208a3b3c6ef6a56b5ae3"
          ],
          "data": "0x000000000000000000000000000000000000000000000000000000000000001e000000000000000000000000000000000000000000000000000000000000004e00000000000000000000000000000000000000000000000000000000000007d0000000000000000000000000253a399b2a63b400f1e7f06f83fbcc0f1236f62f",
          "blockHash": "0xf88f48c29c4b890b3505ec8501fd4aef7f657a9c564dd04bd3f80bc6276847a1",
          "blockNumber": "0x39f5dd8",
          "blockTimestamp": "0x6a11b364",
          "transactionHash": "0xe55ec44eb0bea0c3541481949263240c97263fdaf48b6022ed2e5d0d6e2f4ee4",
          "transactionIndex": "0x4",
          "logIndex": "0x3",
          "removed": false
        }
      ],
      "logsBloom": "0x00000000000000000000000000000000000000000000000000000000000000000000000000000000000000000000000000000000000000000000000000000000100000000000000000000000000000000000000000000080100200000000000000000000000000000000000000080000000000000000000000100000000000000400000000000000000000000000000000000000000000000080000000000000020000000004000000000000000000000000000000000000000000000000000000000000000000000000000000400000000000000000000000000000000000000000000000000000000000000000000000000000400000000000000000000000",
      "transactionHash": "0xe55ec44eb0bea0c3541481949263240c97263fdaf48b6022ed2e5d0d6e2f4ee4",
      "transactionIndex": "0x4",
      "blockHash": "0xf88f48c29c4b890b3505ec8501fd4aef7f657a9c564dd04bd3f80bc6276847a1",
      "blockNumber": "0x39f5dd8",
      "gasUsed": "0x3296d",
      "effectiveGasPrice": "0x1312d01",
      "blobGasUsed": "0x10360",
      "from": "0x253a399b2a63b400f1e7f06f83fbcc0f1236f62f",
      "to": "0x4400ef976ba88155eed71dce66e40daeff83e701",
      "contractAddress": null
    }
  ],
  "libraries": [],
  "pending": [],
  "returns": {},
  "timestamp": 1779544933440,
  "chain": 196,
  "commit": null
}