{
  "transactions": [
    {
      "hash": "0x0fad757af4f299a4b506400d9a418882c081dbd23e5c526b3897f1ab2c2445c6",
      "transactionType": "CALL",
      "contractName": null,
      "contractAddress": "0x8819a7972e17c61a4eefe0f06e4bbef521228c82",
      "function": "approve(address,uint256)",
      "arguments": [
        "0xE00f6dF218E2a3FcF9CF61421fF22ec0175E7D45",
        "100000000000000000000"
      ],
      "transaction": {
        "from": "0x253a399b2a63b400f1e7f06f83fbcc0f1236f62f",
        "to": "0x8819a7972e17c61a4eefe0f06e4bbef521228c82",
        "gas": "0x108f4",
        "value": "0x0",
        "input": "0x095ea7b3000000000000000000000000e00f6df218e2a3fcf9cf61421ff22ec0175e7d450000000000000000000000000000000000000000000000056bc75e2d63100000",
        "nonce": "0x36",
        "chainId": "0xc4"
      },
      "additionalContracts": [],
      "isFixedGasLimit": false
    },
    {
      "hash": "0x54a88710f11f24bd9998605b7e98402d4c76825e7ed9513b16f569428f0afbf7",
      "transactionType": "CALL",
      "contractName": null,
      "contractAddress": "0xe00f6df218e2a3fcf9cf61421ff22ec0175e7d45",
      "function": "registerPublisher(uint256)",
      "arguments": [
        "100000000000000000000"
      ],
      "transaction": {
        "from": "0x253a399b2a63b400f1e7f06f83fbcc0f1236f62f",
        "to": "0xe00f6df218e2a3fcf9cf61421ff22ec0175e7d45",
        "gas": "0x3ac3d",
        "value": "0x0",
        "input": "0xad71b5560000000000000000000000000000000000000000000000056bc75e2d63100000",
        "nonce": "0x37",
        "chainId": "0xc4"
      },
      "additionalContracts": [],
      "isFixedGasLimit": false
    },
    {
      "hash": "0x6f45203ebb0ffd864380e2270593e1fb18eb2768918d7de58516685b107bba85",
      "transactionType": "CALL",
      "contractName": null,
      "contractAddress": "0xe00f6df218e2a3fcf9cf61421ff22ec0175e7d45",
      "function": "publishSignal((bytes32,bytes32,uint256,uint256,uint256,uint256,uint24,uint64,address))",
      "arguments": [
        "(0x6bf4887eff04a13ea67024bb95a65e90e57dadfbe558c17afc831bb955b63013, 0xa42ef95993739b4b4fa31f493b8e6fe2ecfdaa946a9eda3cf820d641e247bcb1, 42, 81, 90, 55, 2000, 1779956870, 0x253a399B2A63b400f1e7f06f83Fbcc0F1236f62f)"
      ],
      "transaction": {
        "from": "0x253a399b2a63b400f1e7f06f83fbcc0f1236f62f",
        "to": "0xe00f6df218e2a3fcf9cf61421ff22ec0175e7d45",
        "gas": "0xc0fe6",
        "value": "0x0",
        "input": "0xbef3c2806bf4887eff04a13ea67024bb95a65e90e57dadfbe558c17afc831bb955b63013a42ef95993739b4b4fa31f493b8e6fe2ecfdaa946a9eda3cf820d641e247bcb1000000000000000000000000000000000000000000000000000000000000002a0000000000000000000000000000000000000000000000000000000000000051000000000000000000000000000000000000000000000000000000000000005a000000000000000000000000000000000000000000000000000000000000003700000000000000000000000000000000000000000000000000000000000007d0000000000000000000000000000000000000000000000000000000006a17fc86000000000000000000000000253a399b2a63b400f1e7f06f83fbcc0f1236f62f",
        "nonce": "0x38",
        "chainId": "0xc4"
      },
      "additionalContracts": [],
      "isFixedGasLimit": false
    },
    {
      "hash": "0xb3cdbd8ddafcb3a0284c7d26d6e40065cbd2c0e39462af8d41fb953b0c9f4e56",
      "transactionType": "CALL",
      "contractName": null,
      "contractAddress": "0xe00f6df218e2a3fcf9cf61421ff22ec0175e7d45",
      "function": "publishSignal((bytes32,bytes32,uint256,uint256,uint256,uint256,uint24,uint64,address))",
      "arguments": [
        "(0xf53c1dba09940bba840482125d4c0af98488086d73fcd21444567308f1295bd8, 0x8f902fdacc92a4a7b9c6d373a1a2692748d761b68fe9a2c9372b0713636923db, 28, 55, 95, 30, 1500, 1779956870, 0x253a399B2A63b400f1e7f06f83Fbcc0F1236f62f)"
      ],
      "transaction": {
        "from": "0x253a399b2a63b400f1e7f06f83fbcc0f1236f62f",
        "to": "0xe00f6df218e2a3fcf9cf61421ff22ec0175e7d45",
        "gas": "0xc63da",
        "value": "0x0",
        "input": "0xbef3c280f53c1dba09940bba840482125d4c0af98488086d73fcd21444567308f1295bd88f902fdacc92a4a7b9c6d373a1a2692748d761b68fe9a2c9372b0713636923db000000000000000000000000000000000000000000000000000000000000001c0000000000000000000000000000000000000000000000000000000000000037000000000000000000000000000000000000000000000000000000000000005f000000000000000000000000000000000000000000000000000000000000001e00000000000000000000000000000000000000000000000000000000000005dc000000000000000000000000000000000000000000000000000000006a17fc86000000000000000000000000253a399b2a63b400f1e7f06f83fbcc0f1236f62f",
        "nonce": "0x39",
        "chainId": "0xc4"
      },
      "additionalContracts": [],
      "isFixedGasLimit": false
    },
    {
      "hash": "0xb56ca96a03fbec749eefc27ae2c5b9b645d56b913710dbfcd75bcd2646f4c5b8",
      "transactionType": "CALL",
      "contractName": null,
      "contractAddress": "0xe00f6df218e2a3fcf9cf61421ff22ec0175e7d45",
      "function": "publishSignal((bytes32,bytes32,uint256,uint256,uint256,uint256,uint24,uint64,address))",
      "arguments": [
        "(0x8fc94cc015ba756ccd6e17acd7bc5aee2927a360a7ac78a1007c04b21360d699, 0x5a9e74da2155ebb698b778fedaba2ef54e40b0e415e81be96682827851700eff, 72, 35, 60, 85, 7500, 1779956870, 0x253a399B2A63b400f1e7f06f83Fbcc0F1236f62f)"
      ],
      "transaction": {
        "from": "0x253a399b2a63b400f1e7f06f83fbcc0f1236f62f",
        "to": "0xe00f6df218e2a3fcf9cf61421ff22ec0175e7d45",
        "gas": "0xbb392",
        "value": "0x0",
        "input": "0xbef3c2808fc94cc015ba756ccd6e17acd7bc5aee2927a360a7ac78a1007c04b21360d6995a9e74da2155ebb698b778fedaba2ef54e40b0e415e81be96682827851700eff00000000000000000000000000000000000000000000000000000000000000480000000000000000000000000000000000000000000000000000000000000023000000000000000000000000000000000000000000000000000000000000003c00000000000000000000000000000000000000000000000000000000000000550000000000000000000000000000000000000000000000000000000000001d4c000000000000000000000000000000000000000000000000000000006a17fc86000000000000000000000000253a399b2a63b400f1e7f06f83fbcc0f1236f62f",
        "nonce": "0x3a",
        "chainId": "0xc4"
      },
      "additionalContracts": [],
      "isFixedGasLimit": false
    },
    {
      "hash": "0x609daca30c61bce5656315606ad8ff7a696788ee1c521163118d640a4f637035",
      "transactionType": "CALL",
      "contractName": null,
      "contractAddress": "0xe00f6df218e2a3fcf9cf61421ff22ec0175e7d45",
      "function": "publishSignal((bytes32,bytes32,uint256,uint256,uint256,uint256,uint24,uint64,address))",
      "arguments": [
        "(0x09540e82456bc98fb39f51075c26ec109dc08ad314eb8430e414c29662de7a1d, 0xb192334b574994b2e7aea853242032a86efb5af60938d97bdbc57908e1f1d838, 30, 78, 70, 40, 2000, 1779956870, 0x253a399B2A63b400f1e7f06f83Fbcc0F1236f62f)"
      ],
      "transaction": {
        "from": "0x253a399b2a63b400f1e7f06f83fbcc0f1236f62f",
        "to": "0xe00f6df218e2a3fcf9cf61421ff22ec0175e7d45",
        "gas": "0xc63da",
        "value": "0x0",
        "input": "0xbef3c28009540e82456bc98fb39f51075c26ec109dc08ad314eb8430e414c29662de7a1db192334b574994b2e7aea853242032a86efb5af60938d97bdbc57908e1f1d838000000000000000000000000000000000000000000000000000000000000001e000000000000000000000000000000000000000000000000000000000000004e0000000000000000000000000000000000000000000000000000000000000046000000000000000000000000000000000000000000000000000000000000002800000000000000000000000000000000000000000000000000000000000007d0000000000000000000000000000000000000000000000000000000006a17fc86000000000000000000000000253a399b2a63b400f1e7f06f83fbcc0f1236f62f",
        "nonce": "0x3b",
        "chainId": "0xc4"
      },
      "additionalContracts": [],
      "isFixedGasLimit": false
    }
  ],
  "receipts": [
    {
      "status": "0x1",
      "cumulativeGasUsed": "0x9db8e",
      "logs": [
        {
          "address": "0x8819a7972e17c61a4eefe0f06e4bbef521228c82",
          "topics": [
            "0x8c5be1e5ebec7d5bd14f71427d1e84f3dd0314c0f7b2291e5b200ac8c7c3b925",
            "0x000000000000000000000000253a399b2a63b400f1e7f06f83fbcc0f1236f62f",
            "0x000000000000000000000000e00f6df218e2a3fcf9cf61421ff22ec0175e7d45"
          ],
          "data": "0x0000000000000000000000000000000000000000000000056bc75e2d63100000",
          "blockHash": "0x8b2686d2b8f6a8013c33d75dab79c85ec9fb488a307c4e85483ac0554c31a97e",
          "blockNumber": "0x3a58b10",
          "blockTimestamp": "0x6a17e09c",
          "transactionHash": "0x0fad757af4f299a4b506400d9a418882c081dbd23e5c526b3897f1ab2c2445c6",
          "transactionIndex": "0x3",
          "logIndex": "0x1a",
          "removed": false
        }
      ],
      "logsBloom": "0x00000000000000000000000000000000000000000000000400000000000000000000000000000000000000000000000000000000000000000000000000200000000000000000000000000000000000000000000000000000001000000000000000000000000000000000000000000000000000000000000000000000000000000000000000000000000000000000000000000000000000000000000000000000020080000000000000000000000010000000000000000000000000000000000000000000800000000000000800040000000000000000000000000000000001000010000000000000000000000008000000000000000000000000000000000000",
      "type": "0x2",
      "transactionHash": "0x0fad757af4f299a4b506400d9a418882c081dbd23e5c526b3897f1ab2c2445c6",
      "transactionIndex": "0x3",
      "blockHash": "0x8b2686d2b8f6a8013c33d75dab79c85ec9fb488a307c4e85483ac0554c31a97e",
      "blockNumber": "0x3a58b10",
      "gasUsed": "0xb52b",
      "effectiveGasPrice": "0x132214c",
      "blobGasUsed": "0x9c40",
      "from": "0x253a399b2a63b400f1e7f06f83fbcc0f1236f62f",
      "to": "0x8819a7972e17c61a4eefe0f06e4bbef521228c82",
      "contractAddress": null,
      "daFootprintGasScalar": "0x190",
      "l1BaseFeeScalar": "0x0",
      "l1BlobBaseFee": "0x85658c",
      "l1BlobBaseFeeScalar": "0x0",
      "l1Fee": "0x0",
      "l1GasPrice": "0x928c5ee",
      "l1GasUsed": "0x640"
    },
    {
      "status": "0x1",
      "cumulativeGasUsed": "0xa9457",
      "logs": [
        {
          "address": "0x8819a7972e17c61a4eefe0f06e4bbef521228c82",
          "topics": [
            "0xddf252ad1be2c89b69c2b068fc378daa952ba7f163c4a11628f55a4df523b3ef",
            "0x000000000000000000000000253a399b2a63b400f1e7f06f83fbcc0f1236f62f",
            "0x000000000000000000000000e00f6df218e2a3fcf9cf61421ff22ec0175e7d45"
          ],
          "data": "0x0000000000000000000000000000000000000000000000056bc75e2d63100000",
          "blockHash": "0x8d22039c8ef6de65285513c78c9200bc0dd1ed91158fed9cebd120aa0aefbbe7",
          "blockNumber": "0x3a58b12",
          "blockTimestamp": "0x6a17e09e",
          "transactionHash": "0x54a88710f11f24bd9998605b7e98402d4c76825e7ed9513b16f569428f0afbf7",
          "transactionIndex": "0x4",
          "logIndex": "0x13",
          "removed": false
        },
        {
          "address": "0xe00f6df218e2a3fcf9cf61421ff22ec0175e7d45",
          "topics": [
            "0x466d40d3c5afb07f32aa87fa68d587f144c6fee2dfb883b3363937d5427e0442",
            "0x000000000000000000000000253a399b2a63b400f1e7f06f83fbcc0f1236f62f"
          ],
          "data": "0x",
          "blockHash": "0x8d22039c8ef6de65285513c78c9200bc0dd1ed91158fed9cebd120aa0aefbbe7",
          "blockNumber": "0x3a58b12",
          "blockTimestamp": "0x6a17e09e",
          "transactionHash": "0x54a88710f11f24bd9998605b7e98402d4c76825e7ed9513b16f569428f0afbf7",
          "transactionIndex": "0x4",
          "logIndex": "0x14",
          "removed": false
        }
      ],
      "logsBloom": "0x00000004000000000000000000000000000000000000000400000000000000000000000004000000000000000000000000000000000000000000000000002000000000000000000000000008000000000000000000000000001000000000000000000000000000000000000000800000000000000000000000000010000000000000000000000000000000000000000000000000000000000000000000000000000080000000000000000000000010000000000000800000000000000000000000004002800000000000000800040000000000000000000000000000000001000000000000000000000000000008000000000000000000000000000000000000",
      "type": "0x2",
      "transactionHash": "0x54a88710f11f24bd9998605b7e98402d4c76825e7ed9513b16f569428f0afbf7",
      "transactionIndex": "0x4",
      "blockHash": "0x8d22039c8ef6de65285513c78c9200bc0dd1ed91158fed9cebd120aa0aefbbe7",
      "blockNumber": "0x3a58b12",
      "gasUsed": "0x2a8b8",
      "effectiveGasPrice": "0x132214c",
      "blobGasUsed": "0x9c40",
      "from": "0x253a399b2a63b400f1e7f06f83fbcc0f1236f62f",
      "to": "0xe00f6df218e2a3fcf9cf61421ff22ec0175e7d45",
      "contractAddress": null,
      "daFootprintGasScalar": "0x190",
      "l1BaseFeeScalar": "0x0",
      "l1BlobBaseFee": "0x85658c",
      "l1BlobBaseFeeScalar": "0x0",
      "l1Fee": "0x0",
      "l1GasPrice": "0x928c5ee",
      "l1GasUsed": "0x640"
    },
    {
      "status": "0x1",
      "cumulativeGasUsed": "0x9daec",
      "logs": [
        {
          "address": "0xe00f6df218e2a3fcf9cf61421ff22ec0175e7d45",
          "topics": [
            "0x0face291eef5c87612364bee04388acc5d3b3fdd67696755ef1354fd31145622",
            "0x6bf4887eff04a13ea67024bb95a65e90e57dadfbe558c17afc831bb955b63013",
            "0xa42ef95993739b4b4fa31f493b8e6fe2ecfdaa946a9eda3cf820d641e247bcb1"
          ],
          "data": "0x000000000000000000000000000000000000000000000000000000000000002a000000000000000000000000000000000000000000000000000000000000005100000000000000000000000000000000000000000000000000000000000007d0000000000000000000000000253a399b2a63b400f1e7f06f83fbcc0f1236f62f",
          "blockHash": "0x94aadbdbd09123de6fe20af613643ee836f8bdca24279e334d439588fb9241b1",
          "blockNumber": "0x3a58b14",
          "blockTimestamp": "0x6a17e0a0",
          "transactionHash": "0x6f45203ebb0ffd864380e2270593e1fb18eb2768918d7de58516685b107bba85",
          "transactionIndex": "0x2",
          "logIndex": "0x0",
          "removed": false
        }
      ],
      "logsBloom": "0x0000000400000000000000000000000000000000000000000000000000000000000000000000000000000000000000000000000000000000000002000000200000000000000000000000000000000000000000000000000000020000000000000000000000000000000000000008000000000000000000000000000000000000000000080000000000000000000000000000000000000000000000000000000000000000000400000000000008000000000000000000000000000000000000000000c000000000000000000000000000000000000000000000000080000000000008000000000000000000000000000000000000000000000000000000000000",
      "type": "0x2",
      "transactionHash": "0x6f45203ebb0ffd864380e2270593e1fb18eb2768918d7de58516685b107bba85",
      "transactionIndex": "0x2",
      "blockHash": "0x94aadbdbd09123de6fe20af613643ee836f8bdca24279e334d439588fb9241b1",
      "blockNumber": "0x3a58b14",
      "gasUsed": "0x8bb96",
      "effectiveGasPrice": "0x132214c",
      "blobGasUsed": "0x109a0",
      "from": "0x253a399b2a63b400f1e7f06f83fbcc0f1236f62f",
      "to": "0xe00f6df218e2a3fcf9cf61421ff22ec0175e7d45",
      "contractAddress": null,
      "daFootprintGasScalar": "0x190",
      "l1BaseFeeScalar": "0x0",
      "l1BlobBaseFee": "0x876825",
      "l1BlobBaseFeeScalar": "0x0",
      "l1Fee": "0x0",
      "l1GasPrice": "0x93c2b8b",
      "l1GasUsed": "0xaab"
    },
    {
      "status": "0x1",
      "cumulativeGasUsed": "0x92d24",
      "logs": [
        {
          "address": "0xe00f6df218e2a3fcf9cf61421ff22ec0175e7d45",
          "topics": [
            "0x0face291eef5c87612364bee04388acc5d3b3fdd67696755ef1354fd31145622",
            "0xf53c1dba09940bba840482125d4c0af98488086d73fcd21444567308f1295bd8",
            "0x8f902fdacc92a4a7b9c6d373a1a2692748d761b68fe9a2c9372b0713636923db"
          ],
          "data": "0x000000000000000000000000000000000000000000000000000000000000001c000000000000000000000000000000000000000000000000000000000000003700000000000000000000000000000000000000000000000000000000000005dc000000000000000000000000253a399b2a63b400f1e7f06f83fbcc0f1236f62f",
          "blockHash": "0x0151060406342cf3d9f5586cbb0dc326125c2946acfbad49442251531cb485a5",
          "blockNumber": "0x3a58b17",
          "blockTimestamp": "0x6a17e0a3",
          "transactionHash": "0xb3cdbd8ddafcb3a0284c7d26d6e40065cbd2c0e39462af8d41fb953b0c9f4e56",
          "transactionIndex": "0x1",
          "logIndex": "0x0",
          "removed": false
        }
      ],
      "logsBloom": "0x00000004000000000000000000000000000000000000000000000000000000000000000000000000000000000040000000000000000000000000000000002000000000000000000000000000000000000000000000000000000200000000000000000000000000000000000000080000000000000000000000002000000000000000000000000000000000000000000000000000000000000000000000000000000000000004001000000000000000000000000000000000000000008000000000004000000000000000000000000400000000000000000000000000000000000000000000000000000000100000000000000000000000000000000000000000",
      "type": "0x2",
      "transactionHash": "0xb3cdbd8ddafcb3a0284c7d26d6e40065cbd2c0e39462af8d41fb953b0c9f4e56",
      "transactionIndex": "0x1",
      "blockHash": "0x0151060406342cf3d9f5586cbb0dc326125c2946acfbad49442251531cb485a5",
      "blockNumber": "0x3a58b17",
      "gasUsed": "0x878ca",
      "effectiveGasPrice": "0x132214c",
      "blobGasUsed": "0x109a0",
      "from": "0x253a399b2a63b400f1e7f06f83fbcc0f1236f62f",
      "to": "0xe00f6df218e2a3fcf9cf61421ff22ec0175e7d45",
      "contractAddress": null,
      "daFootprintGasScalar": "0x190",
      "l1BaseFeeScalar": "0x0",
      "l1BlobBaseFee": "0x876825",
      "l1BlobBaseFeeScalar": "0x0",
      "l1Fee": "0x0",
      "l1GasPrice": "0x93c2b8b",
      "l1GasUsed": "0xaab"
    },
    {
      "status": "0x1",
      "cumulativeGasUsed": "0xd131c",
      "logs": [
        {
          "address": "0xe00f6df218e2a3fcf9cf61421ff22ec0175e7d45",
          "topics": [
            "0x0face291eef5c87612364bee04388acc5d3b3fdd67696755ef1354fd31145622",
            "0x8fc94cc015ba756ccd6e17acd7bc5aee2927a360a7ac78a1007c04b21360d699",
            "0x5a9e74da2155ebb698b778fedaba2ef54e40b0e415e81be96682827851700eff"
          ],
          "data": "0x000000000000000000000000000000000000000000000000000000000000004800000000000000000000000000000000000000000000000000000000000000230000000000000000000000000000000000000000000000000000000000001d4c000000000000000000000000253a399b2a63b400f1e7f06f83fbcc0f1236f62f",
          "blockHash": "0x4c78f048d0c5767330f54d2c0a6101c2de189f8f2116862f6bd50f8b4b553fde",
          "blockNumber": "0x3a58b19",
          "blockTimestamp": "0x6a17e0a5",
          "transactionHash": "0xb56ca96a03fbec749eefc27ae2c5b9b645d56b913710dbfcd75bcd2646f4c5b8",
          "transactionIndex": "0x2",
          "logIndex": "0xb",
          "removed": false
        }
      ],
      "logsBloom": "0x00000004000010000008000000000000000000000000000000000000000000000000000000000000000000000000000000000000000000000000000000002000000000000000000000000000000000000000400000000000000200000000000100000000000000000000000000080000000000000000000000000000000000000040000000000000000000000000000000000000000000000000000000000000000000000004000000000000000000000000000000000000000000000000000000004000000000000000000000000000000000000000000000000000000000000000000000000000000010000000000000000000000000000000000000000000",
      "type": "0x2",
      "transactionHash": "0xb56ca96a03fbec749eefc27ae2c5b9b645d56b913710dbfcd75bcd2646f4c5b8",
      "transactionIndex": "0x2",
      "blockHash": "0x4c78f048d0c5767330f54d2c0a6101c2de189f8f2116862f6bd50f8b4b553fde",
      "blockNumber": "0x3a58b19",
      "gasUsed": "0x878be",
      "effectiveGasPrice": "0x132214c",
      "blobGasUsed": "0x109a0",
      "from": "0x253a399b2a63b400f1e7f06f83fbcc0f1236f62f",
      "to": "0xe00f6df218e2a3fcf9cf61421ff22ec0175e7d45",
      "contractAddress": null,
      "daFootprintGasScalar": "0x190",
      "l1BaseFeeScalar": "0x0",
      "l1BlobBaseFee": "0x876825",
      "l1BlobBaseFeeScalar": "0x0",
      "l1Fee": "0x0",
      "l1GasPrice": "0x93c2b8b",
      "l1GasUsed": "0xaab"
    },
    {
      "status": "0x1",
      "cumulativeGasUsed": "0x1360a2",
      "logs": [
        {
          "address": "0xe00f6df218e2a3fcf9cf61421ff22ec0175e7d45",
          "topics": [
            "0x0face291eef5c87612364bee04388acc5d3b3fdd67696755ef1354fd31145622",
            "0x09540e82456bc98fb39f51075c26ec109dc08ad314eb8430e414c29662de7a1d",
            "0xb192334b574994b2e7aea853242032a86efb5af60938d97bdbc57908e1f1d838"
          ],
          "data": "0x000000000000000000000000000000000000000000000000000000000000001e000000000000000000000000000000000000000000000000000000000000004e00000000000000000000000000000000000000000000000000000000000007d0000000000000000000000000253a399b2a63b400f1e7f06f83fbcc0f1236f62f",
          "blockHash": "0x15ab0fb8e364cb6108da3d40a6122547fbddb4bf931042797c64786ebff2aa5b",
          "blockNumber": "0x3a58b1a",
          "blockTimestamp": "0x6a17e0a6",
          "transactionHash": "0x609daca30c61bce5656315606ad8ff7a696788ee1c521163118d640a4f637035",
          "transactionIndex": "0x5",
          "logIndex": "0x23",
          "removed": false
        }
      ],
      "logsBloom": "0x00000004000000000000000000000000000000000000000000000000000000000000000020000000008000000000000000000000000000000000000000002000000000000000000000000000000000000000000000400000000200000000000000400000000000000000000000080000000000000000000000000000000000000000000000000000000000000000000000000000000000000000000000000000000000000004000000000000000000000000000000000040000000000000000000004000000000000000000000000000000000000000000000000000000000000000000000000000000000000000000000000000000000000000000000000040",
      "type": "0x2",
      "transactionHash": "0x609daca30c61bce5656315606ad8ff7a696788ee1c521163118d640a4f637035",
      "transactionIndex": "0x5",
      "blockHash": "0x15ab0fb8e364cb6108da3d40a6122547fbddb4bf931042797c64786ebff2aa5b",
      "blockNumber": "0x3a58b1a",
      "gasUsed": "0x878ca",
      "effectiveGasPrice": "0x132214c",
      "blobGasUsed": "0x109a0",
      "from": "0x253a399b2a63b400f1e7f06f83fbcc0f1236f62f",
      "to": "0xe00f6df218e2a3fcf9cf61421ff22ec0175e7d45",
      "contractAddress": null,
      "daFootprintGasScalar": "0x190",
      "l1BaseFeeScalar": "0x0",
      "l1BlobBaseFee": "0x876825",
      "l1BlobBaseFeeScalar": "0x0",
      "l1Fee": "0x0",
      "l1GasPrice": "0x93c2b8b",
      "l1GasUsed": "0xaab"
    }
  ],
  "libraries": [],
  "pending": [],
  "returns": {},
  "timestamp": 1779949735,
  "chain": 196,
  "commit": "6003c41"
}