{
  "transactions": [
    {
      "hash": "0x342b7ff52aac194daac035ce9079bf65f9bd8910c5eafdad944ffde19b1cdc6d",
      "transactionType": "CALL",
      "contractName": null,
      "contractAddress": "0x713d8c2f1983848edfe2f1f3730d9ff74aba4b7f",
      "function": "publishSignal((bytes32,bytes32,uint256,uint256,uint256,uint256,uint24,uint64,address))",
      "arguments": [
        "(0x914aeae3319b6c961c26382471a5f1baacc99fa9eb21d4b08d40a770a66f548b, 0xa42ef95993739b4b4fa31f493b8e6fe2ecfdaa946a9eda3cf820d641e247bcb1, 42, 81, 90, 55, 2000, 1779938332, 0x253a399B2A63b400f1e7f06f83Fbcc0F1236f62f)"
      ],
      "transaction": {
        "from": "0x253a399b2a63b400f1e7f06f83fbcc0f1236f62f",
        "to": "0x713d8c2f1983848edfe2f1f3730d9ff74aba4b7f",
        "gas": "0x6ea7a",
        "value": "0x0",
        "input": "0xbef3c280914aeae3319b6c961c26382471a5f1baacc99fa9eb21d4b08d40a770a66f548ba42ef95993739b4b4fa31f493b8e6fe2ecfdaa946a9eda3cf820d641e247bcb1000000000000000000000000000000000000000000000000000000000000002a0000000000000000000000000000000000000000000000000000000000000051000000000000000000000000000000000000000000000000000000000000005a000000000000000000000000000000000000000000000000000000000000003700000000000000000000000000000000000000000000000000000000000007d0000000000000000000000000000000000000000000000000000000006a17b41c000000000000000000000000253a399b2a63b400f1e7f06f83fbcc0f1236f62f",
        "nonce": "0x2e",
        "chainId": "0xc4"
      },
      "additionalContracts": [],
      "isFixedGasLimit": false
    },
    {
      "hash": "0xfc87ed8f5c0b9f65b6e2033ac6268ee2c83d04e42f9ed49dee136a9fb28270c6",
      "transactionType": "CALL",
      "contractName": null,
      "contractAddress": "0x713d8c2f1983848edfe2f1f3730d9ff74aba4b7f",
      "function": "publishSignal((bytes32,bytes32,uint256,uint256,uint256,uint256,uint24,uint64,address))",
      "arguments": [
        "(0xb7481746a02c8e6d856b1b0e1622de917cb0b5915df1cecf943f63d677d40a24, 0x8f902fdacc92a4a7b9c6d373a1a2692748d761b68fe9a2c9372b0713636923db, 28, 55, 95, 30, 1500, 1779938332, 0x253a399B2A63b400f1e7f06f83Fbcc0F1236f62f)"
      ],
      "transaction": {
        "from": "0x253a399b2a63b400f1e7f06f83fbcc0f1236f62f",
        "to": "0x713d8c2f1983848edfe2f1f3730d9ff74aba4b7f",
        "gas": "0x6ea7a",
        "value": "0x0",
        "input": "0xbef3c280b7481746a02c8e6d856b1b0e1622de917cb0b5915df1cecf943f63d677d40a248f902fdacc92a4a7b9c6d373a1a2692748d761b68fe9a2c9372b0713636923db000000000000000000000000000000000000000000000000000000000000001c0000000000000000000000000000000000000000000000000000000000000037000000000000000000000000000000000000000000000000000000000000005f000000000000000000000000000000000000000000000000000000000000001e00000000000000000000000000000000000000000000000000000000000005dc000000000000000000000000000000000000000000000000000000006a17b41c000000000000000000000000253a399b2a63b400f1e7f06f83fbcc0f1236f62f",
        "nonce": "0x2f",
        "chainId": "0xc4"
      },
      "additionalContracts": [],
      "isFixedGasLimit": false
    },
    {
      "hash": "0x63f63327f6b9f5a9d299d89a25a962d4955a160fa44101a5a42f1dfc20d1e6f8",
      "transactionType": "CALL",
      "contractName": null,
      "contractAddress": "0x713d8c2f1983848edfe2f1f3730d9ff74aba4b7f",
      "function": "publishSignal((bytes32,bytes32,uint256,uint256,uint256,uint256,uint24,uint64,address))",
      "arguments": [
        "(0xaf45970fb6ea73e0c5eba0378c5d1e4b206b9fdea984d35c764eb5f38b3448aa, 0x5a9e74da2155ebb698b778fedaba2ef54e40b0e415e81be96682827851700eff, 72, 35, 60, 85, 7500, 1779938332, 0x253a399B2A63b400f1e7f06f83Fbcc0F1236f62f)"
      ],
      "transaction": {
        "from": "0x253a399b2a63b400f1e7f06f83fbcc0f1236f62f",
        "to": "0x713d8c2f1983848edfe2f1f3730d9ff74aba4b7f",
        "gas": "0x6ea7a",
        "value": "0x0",
        "input": "0xbef3c280af45970fb6ea73e0c5eba0378c5d1e4b206b9fdea984d35c764eb5f38b3448aa5a9e74da2155ebb698b778fedaba2ef54e40b0e415e81be96682827851700eff00000000000000000000000000000000000000000000000000000000000000480000000000000000000000000000000000000000000000000000000000000023000000000000000000000000000000000000000000000000000000000000003c00000000000000000000000000000000000000000000000000000000000000550000000000000000000000000000000000000000000000000000000000001d4c000000000000000000000000000000000000000000000000000000006a17b41c000000000000000000000000253a399b2a63b400f1e7f06f83fbcc0f1236f62f",
        "nonce": "0x30",
        "chainId": "0xc4"
      },
      "additionalContracts": [],
      "isFixedGasLimit": false
    },
    {
      "hash": "0x7a588aa06c55afde25756cc35e518c983df56e01b194d169616c4bce5aed5094",
      "transactionType": "CALL",
      "contractName": null,
      "contractAddress": "0x713d8c2f1983848edfe2f1f3730d9ff74aba4b7f",
      "function": "publishSignal((bytes32,bytes32,uint256,uint256,uint256,uint256,uint24,uint64,address))",
      "arguments": [
        "(0x1451b5c51faf3cab2d9e6ce043e6c6480d3dc17c07193e132d67256717f4ca80, 0xb192334b574994b2e7aea853242032a86efb5af60938d97bdbc57908e1f1d838, 30, 78, 70, 40, 2000, 1779938332, 0x253a399B2A63b400f1e7f06f83Fbcc0F1236f62f)"
      ],
      "transaction": {
        "from": "0x253a399b2a63b400f1e7f06f83fbcc0f1236f62f",
        "to": "0x713d8c2f1983848edfe2f1f3730d9ff74aba4b7f",
        "gas": "0x6ea7a",
        "value": "0x0",
        "input": "0xbef3c2801451b5c51faf3cab2d9e6ce043e6c6480d3dc17c07193e132d67256717f4ca80b192334b574994b2e7aea853242032a86efb5af60938d97bdbc57908e1f1d838000000000000000000000000000000000000000000000000000000000000001e000000000000000000000000000000000000000000000000000000000000004e0000000000000000000000000000000000000000000000000000000000000046000000000000000000000000000000000000000000000000000000000000002800000000000000000000000000000000000000000000000000000000000007d0000000000000000000000000000000000000000000000000000000006a17b41c000000000000000000000000253a399b2a63b400f1e7f06f83fbcc0f1236f62f",
        "nonce": "0x31",
        "chainId": "0xc4"
      },
      "additionalContracts": [],
      "isFixedGasLimit": false
    }
  ],
  "receipts": [
    {
      "status": "0x1",
      "cumulativeGasUsed": "0xc7e07",
      "logs": [
        {
          "address": "0x713d8c2f1983848edfe2f1f3730d9ff74aba4b7f",
          "topics": [
            "0x0face291eef5c87612364bee04388acc5d3b3fdd67696755ef1354fd31145622",
            "0x914aeae3319b6c961c26382471a5f1baacc99fa9eb21d4b08d40a770a66f548b",
            "0xa42ef95993739b4b4fa31f493b8e6fe2ecfdaa946a9eda3cf820d641e247bcb1"
          ],
          "data": "0x000000000000000000000000000000000000000000000000000000000000002a000000000000000000000000000000000000000000000000000000000000005100000000000000000000000000000000000000000000000000000000000007d0000000000000000000000000253a399b2a63b400f1e7f06f83fbcc0f1236f62f",
          "blockHash": "0x5ca2509e56c4a32cecca9e030fe5c7dcbbad0dec1dc38dd126e5ed042812b267",
          "blockNumber": "0x3a5428a",
          "blockTimestamp": "0x6a179816",
          "transactionHash": "0x342b7ff52aac194daac035ce9079bf65f9bd8910c5eafdad944ffde19b1cdc6d",
          "transactionIndex": "0x5",
          "logIndex": "0xa",
          "removed": false
        }
      ],
      "logsBloom": "0x00000000000000000000000000000000000000000000000000000000008000000000000000000000000000000000000000000000000080000000000000000000000000000000000000000000000000000000000000000000000200000000000000000000000000000000000000080000000000000000000000000000000000000000000800000000000000000000000000000000000000000000000000000000000000000004800000000000000000000000000100000000000000000000000000008000000000000000000000000010000000000000000000000000000000800008000000000000000000000000000000000000000000000000000000000000",
      "type": "0x2",
      "transactionHash": "0x342b7ff52aac194daac035ce9079bf65f9bd8910c5eafdad944ffde19b1cdc6d",
      "transactionIndex": "0x5",
      "blockHash": "0x5ca2509e56c4a32cecca9e030fe5c7dcbbad0dec1dc38dd126e5ed042812b267",
      "blockNumber": "0x3a5428a",
      "gasUsed": "0x501cc",
      "effectiveGasPrice": "0x1312d01",
      "blobGasUsed": "0x10810",
      "from": "0x253a399b2a63b400f1e7f06f83fbcc0f1236f62f",
      "to": "0x713d8c2f1983848edfe2f1f3730d9ff74aba4b7f",
      "contractAddress": null,
      "daFootprintGasScalar": "0x190",
      "l1BaseFeeScalar": "0x0",
      "l1BlobBaseFee": "0x9cab75",
      "l1BlobBaseFeeScalar": "0x0",
      "l1Fee": "0x0",
      "l1GasPrice": "0x10392637",
      "l1GasUsed": "0xa90"
    },
    {
      "status": "0x1",
      "cumulativeGasUsed": "0xc07ae",
      "logs": [
        {
          "address": "0x713d8c2f1983848edfe2f1f3730d9ff74aba4b7f",
          "topics": [
            "0x0face291eef5c87612364bee04388acc5d3b3fdd67696755ef1354fd31145622",
            "0xb7481746a02c8e6d856b1b0e1622de917cb0b5915df1cecf943f63d677d40a24",
            "0x8f902fdacc92a4a7b9c6d373a1a2692748d761b68fe9a2c9372b0713636923db"
          ],
          "data": "0x000000000000000000000000000000000000000000000000000000000000001c000000000000000000000000000000000000000000000000000000000000003700000000000000000000000000000000000000000000000000000000000005dc000000000000000000000000253a399b2a63b400f1e7f06f83fbcc0f1236f62f",
          "blockHash": "0x48969fe0a7b5c94d51b390b5a9bd19b91aee86bccabed5e94c462e108b52fc00",
          "blockNumber": "0x3a5428c",
          "blockTimestamp": "0x6a179818",
          "transactionHash": "0xfc87ed8f5c0b9f65b6e2033ac6268ee2c83d04e42f9ed49dee136a9fb28270c6",
          "transactionIndex": "0x5",
          "logIndex": "0x7",
          "removed": false
        }
      ],
      "logsBloom": "0x00000000001000000000000000000000000000000000000000000000008000000000000000000000000000000000000000000000000000000000000000000000000000000000000000000000000000000000000000000000000200000000000000000000000000000000000000080000000000000000000000000000000000000000000000000000000000000000000000000000000000000000000000000000000000000004001000000000000000000000000000000000000000008000000000000000000000000000000000000010000000400000000000000800000000800000000000000000000000100000000000000000000000000000000000000000",
      "type": "0x2",
      "transactionHash": "0xfc87ed8f5c0b9f65b6e2033ac6268ee2c83d04e42f9ed49dee136a9fb28270c6",
      "transactionIndex": "0x5",
      "blockHash": "0x48969fe0a7b5c94d51b390b5a9bd19b91aee86bccabed5e94c462e108b52fc00",
      "blockNumber": "0x3a5428c",
      "gasUsed": "0x501cc",
      "effectiveGasPrice": "0x1312d01",
      "blobGasUsed": "0x10360",
      "from": "0x253a399b2a63b400f1e7f06f83fbcc0f1236f62f",
      "to": "0x713d8c2f1983848edfe2f1f3730d9ff74aba4b7f",
      "contractAddress": null,
      "daFootprintGasScalar": "0x190",
      "l1BaseFeeScalar": "0x0",
      "l1BlobBaseFee": "0x9cab75",
      "l1BlobBaseFeeScalar": "0x0",
      "l1Fee": "0x0",
      "l1GasPrice": "0x10392637",
      "l1GasUsed": "0xa68"
    },
    {
      "status": "0x1",
      "cumulativeGasUsed": "0x11b42a",
      "logs": [
        {
          "address": "0x713d8c2f1983848edfe2f1f3730d9ff74aba4b7f",
          "topics": [
            "0x0face291eef5c87612364bee04388acc5d3b3fdd67696755ef1354fd31145622",
            "0xaf45970fb6ea73e0c5eba0378c5d1e4b206b9fdea984d35c764eb5f38b3448aa",
            "0x5a9e74da2155ebb698b778fedaba2ef54e40b0e415e81be96682827851700eff"
          ],
          "data": "0x000000000000000000000000000000000000000000000000000000000000004800000000000000000000000000000000000000000000000000000000000000230000000000000000000000000000000000000000000000000000000000001d4c000000000000000000000000253a399b2a63b400f1e7f06f83fbcc0f1236f62f",
          "blockHash": "0x181b7a53de3635a63c6f4da81b2c6234a1cf9b73053876cba01b7a115de56568",
          "blockNumber": "0x3a5428e",
          "blockTimestamp": "0x6a17981a",
          "transactionHash": "0x63f63327f6b9f5a9d299d89a25a962d4955a160fa44101a5a42f1dfc20d1e6f8",
          "transactionIndex": "0x9",
          "logIndex": "0x10",
          "removed": false
        }
      ],
      "logsBloom": "0x00000000000010000000000000000000000000000000000000000000008000000000000000000000800000000000000000000000000000000000000000000000000000000000000000000000000000000000400000000000000200008000000000000000000000000000000000080000000000000000000000000000000000000040000000000000000000000000000000000000000000000000000000000000000000000004800000000000000000000000000000000000000000000000000000000000000000000000000000000010000000000000000000000000000000800000000000000000000000000000000000000000000000000000000000000000",
      "type": "0x2",
      "transactionHash": "0x63f63327f6b9f5a9d299d89a25a962d4955a160fa44101a5a42f1dfc20d1e6f8",
      "transactionIndex": "0x9",
      "blockHash": "0x181b7a53de3635a63c6f4da81b2c6234a1cf9b73053876cba01b7a115de56568",
      "blockNumber": "0x3a5428e",
      "gasUsed": "0x501cc",
      "effectiveGasPrice": "0x1312d01",
      "blobGasUsed": "0x10810",
      "from": "0x253a399b2a63b400f1e7f06f83fbcc0f1236f62f",
      "to": "0x713d8c2f1983848edfe2f1f3730d9ff74aba4b7f",
      "contractAddress": null,
      "daFootprintGasScalar": "0x190",
      "l1BaseFeeScalar": "0x0",
      "l1BlobBaseFee": "0x9cab75",
      "l1BlobBaseFeeScalar": "0x0",
      "l1Fee": "0x0",
      "l1GasPrice": "0x10392637",
      "l1GasUsed": "0xa90"
    },
    {
      "status": "0x1",
      "cumulativeGasUsed": "0x127b95",
      "logs": [
        {
          "address": "0x713d8c2f1983848edfe2f1f3730d9ff74aba4b7f",
          "topics": [
            "0x0face291eef5c87612364bee04388acc5d3b3fdd67696755ef1354fd31145622",
            "0x1451b5c51faf3cab2d9e6ce043e6c6480d3dc17c07193e132d67256717f4ca80",
            "0xb192334b574994b2e7aea853242032a86efb5af60938d97bdbc57908e1f1d838"
          ],
          "data": "0x000000000000000000000000000000000000000000000000000000000000001e000000000000000000000000000000000000000000000000000000000000004e00000000000000000000000000000000000000000000000000000000000007d0000000000000000000000000253a399b2a63b400f1e7f06f83fbcc0f1236f62f",
          "blockHash": "0x3c38967a78e6aa3199c10d079e750f6958bafb3a203f95f1693dc0ecd33aca04",
          "blockNumber": "0x3a5428f",
          "blockTimestamp": "0x6a17981b",
          "transactionHash": "0x7a588aa06c55afde25756cc35e518c983df56e01b194d169616c4bce5aed5094",
          "transactionIndex": "0x9",
          "logIndex": "0xf",
          "removed": false
        }
      ],
      "logsBloom": "0x00000000000000000000000000000000000000000000000000000000008000000000000020000000000000040000000000000000000000000000000000000000000000000000000000000000000000000000000000000000000204000000000000400000000000000000000000080000000000000000000000000000000000000000000000000000000000000000000000000000000000000000000000000000000000000004000000000000000400000000000000000000000000000000000000000000000000000000000000000010000000000000000000000000000000800000000000000000000000000000000000000000000000000000000000000040",
      "type": "0x2",
      "transactionHash": "0x7a588aa06c55afde25756cc35e518c983df56e01b194d169616c4bce5aed5094",
      "transactionIndex": "0x9",
      "blockHash": "0x3c38967a78e6aa3199c10d079e750f6958bafb3a203f95f1693dc0ecd33aca04",
      "blockNumber": "0x3a5428f",
      "gasUsed": "0x501cc",
      "effectiveGasPrice": "0x1312d01",
      "blobGasUsed": "0x10810",
      "from": "0x253a399b2a63b400f1e7f06f83fbcc0f1236f62f",
      "to": "0x713d8c2f1983848edfe2f1f3730d9ff74aba4b7f",
      "contractAddress": null,
      "daFootprintGasScalar": "0x190",
      "l1BaseFeeScalar": "0x0",
      "l1BlobBaseFee": "0x9cab75",
      "l1BlobBaseFeeScalar": "0x0",
      "l1Fee": "0x0",
      "l1GasPrice": "0x10392637",
      "l1GasUsed": "0xa90"
    }
  ],
  "libraries": [],
  "pending": [],
  "returns": {},
  "timestamp": 1779931164,
  "chain": 196,
  "commit": "cff14ee"
}