{
  "transactions": [
    {
      "hash": "0x1b566ab603b346c13d8a5c8b18a458086bd65e5b1f4f3dc1adb7c4e346a91e72",
      "transactionType": "CALL",
      "contractName": null,
      "contractAddress": "0x360e68faccca8ca495c1b759fd9eee466db9fb32",
      "function": "initialize((address,address,uint24,int24,address),uint160)",
      "arguments": [
        "(0x89c1f53f8068aFC73894F1E6c7Dcb2F98B1FdE26, 0xFD039d1268Fd578282431668075efdcb12D26eC1, 8388608, 60, 0x3789B7CBAFc3a1AfC45186f51e00239C44c9c0C0)",
        "79228162514264337593543950336"
      ],
      "transaction": {
        "from": "0x253a399b2a63b400f1e7f06f83fbcc0f1236f62f",
        "to": "0x360e68faccca8ca495c1b759fd9eee466db9fb32",
        "gas": "0x1271d",
        "value": "0x0",
        "input": "0x6276cbbe00000000000000000000000089c1f53f8068afc73894f1e6c7dcb2f98b1fde26000000000000000000000000fd039d1268fd578282431668075efdcb12d26ec10000000000000000000000000000000000000000000000000000000000800000000000000000000000000000000000000000000000000000000000000000003c0000000000000000000000003789b7cbafc3a1afc45186f51e00239c44c9c0c00000000000000000000000000000000000000001000000000000000000000000",
        "nonce": "0x8",
        "chainId": "0xc4"
      },
      "additionalContracts": [],
      "isFixedGasLimit": false
    },
    {
      "hash": "0xd0cc298b35cebd16f41774e1429edd2ff21e594208bd5dbe045f4f2c5e5ac5b1",
      "transactionType": "CALL",
      "contractName": null,
      "contractAddress": "0xb19fc72d5df88aa056cae1b56edabea442437dd7",
      "function": "setPolicy(bytes32,(uint256,uint256,uint24,uint24,bool,bool,address))",
      "arguments": [
        "0x18fbbb40daeac99fc85ad9124752e140792a9874f1ed2a159d925da9647aa54d",
        "(75, 20, 3000, 10000, true, true, 0x253a399B2A63b400f1e7f06f83Fbcc0F1236f62f)"
      ],
      "transaction": {
        "from": "0x253a399b2a63b400f1e7f06f83fbcc0f1236f62f",
        "to": "0xb19fc72d5df88aa056cae1b56edabea442437dd7",
        "gas": "0x2f77f",
        "value": "0x0",
        "input": "0x8437a6af18fbbb40daeac99fc85ad9124752e140792a9874f1ed2a159d925da9647aa54d000000000000000000000000000000000000000000000000000000000000004b00000000000000000000000000000000000000000000000000000000000000140000000000000000000000000000000000000000000000000000000000000bb8000000000000000000000000000000000000000000000000000000000000271000000000000000000000000000000000000000000000000000000000000000010000000000000000000000000000000000000000000000000000000000000001000000000000000000000000253a399b2a63b400f1e7f06f83fbcc0f1236f62f",
        "nonce": "0x9",
        "chainId": "0xc4"
      },
      "additionalContracts": [],
      "isFixedGasLimit": false
    }
  ],
  "receipts": [
    {
      "type": "0x0",
      "status": "0x1",
      "cumulativeGasUsed": "0x5df93",
      "logs": [
        {
          "address": "0x360e68faccca8ca495c1b759fd9eee466db9fb32",
          "topics": [
            "0xdd466e674ea557f56295e2d0218a125ea4b4f0f6f3307b95f85e6110838d6438",
            "0x18fbbb40daeac99fc85ad9124752e140792a9874f1ed2a159d925da9647aa54d",
            "0x00000000000000000000000089c1f53f8068afc73894f1e6c7dcb2f98b1fde26",
            "0x000000000000000000000000fd039d1268fd578282431668075efdcb12d26ec1"
          ],
          "data": "0x0000000000000000000000000000000000000000000000000000000000800000000000000000000000000000000000000000000000000000000000000000003c0000000000000000000000003789b7cbafc3a1afc45186f51e00239c44c9c0c000000000000000000000000000000000000000010000000000000000000000000000000000000000000000000000000000000000000000000000000000000000",
          "blockHash": "0xb66205067733631700d250618e83b8fc3551b30ee407ffa542782200edb76992",
          "blockNumber": "0x39f5977",
          "blockTimestamp": "0x6a11af03",
          "transactionHash": "0x1b566ab603b346c13d8a5c8b18a458086bd65e5b1f4f3dc1adb7c4e346a91e72",
          "transactionIndex": "0x3",
          "logIndex": "0xf",
          "removed": false
        }
      ],
      "logsBloom": "0x00000000000000000000002000000000000000000000000000000000000000400000000000000000000000000000000000000000000000000000000002000000000000000000000001002000000000000000000000000000000000000000000000000000040000000000000000000000000000000000000000000000000000000000000000004008000000000000000000000001000000000000000000200000000000000000000000000000000000000000000004000000000000000000000000080000000000000000000000000000000004000000000000000000000000000000000000000000000000000000000000000000004000000000000000000008",
      "transactionHash": "0x1b566ab603b346c13d8a5c8b18a458086bd65e5b1f4f3dc1adb7c4e346a91e72",
      "transactionIndex": "0x3",
      "blockHash": "0xb66205067733631700d250618e83b8fc3551b30ee407ffa542782200edb76992",
      "blockNumber": "0x39f5977",
      "gasUsed": "0xc9ca",
      "effectiveGasPrice": "0x1312d01",
      "blobGasUsed": "0xd480",
      "from": "0x253a399b2a63b400f1e7f06f83fbcc0f1236f62f",
      "to": "0x360e68faccca8ca495c1b759fd9eee466db9fb32",
      "contractAddress": null
    },
    {
      "type": "0x0",
      "status": "0x1",
      "cumulativeGasUsed": "0x80571",
      "logs": [
        {
          "address": "0xb19fc72d5df88aa056cae1b56edabea442437dd7",
          "topics": [
            "0x4796626372633c5d33077ba956a4f0c5e8574bcdfee92d39537c1e9e7089dac5",
            "0x18fbbb40daeac99fc85ad9124752e140792a9874f1ed2a159d925da9647aa54d",
            "0x000000000000000000000000253a399b2a63b400f1e7f06f83fbcc0f1236f62f"
          ],
          "data": "0x0000000000000000000000000000000000000000000000000000000000000001",
          "blockHash": "0xb66205067733631700d250618e83b8fc3551b30ee407ffa542782200edb76992",
          "blockNumber": "0x39f5977",
          "blockTimestamp": "0x6a11af03",
          "transactionHash": "0xd0cc298b35cebd16f41774e1429edd2ff21e594208bd5dbe045f4f2c5e5ac5b1",
          "transactionIndex": "0x4",
          "logIndex": "0x10",
          "removed": false
        }
      ],
      "logsBloom": "0x00000000000000000000000000000000000000000000000000000000000000400000000000000000000000000000000000000000000000000000000002000000000000000000000000000000000000000000000000000000000000000000000000000000000000000000000000400000000000000000000000000000000000000000000000004000000000000000000000000000000000000000000000000000000000000000000000000000000010000000000000000000000000000000000400000000000000000000000800000000000000000040000000000004000020000000000000000000000000000008000000000000000000000000200000000000",
      "transactionHash": "0xd0cc298b35cebd16f41774e1429edd2ff21e594208bd5dbe045f4f2c5e5ac5b1",
      "transactionIndex": "0x4",
      "blockHash": "0xb66205067733631700d250618e83b8fc3551b30ee407ffa542782200edb76992",
      "blockNumber": "0x39f5977",
      "gasUsed": "0x225de",
      "effectiveGasPrice": "0x1312d01",
      "blobGasUsed": "0xd160",
      "from": "0x253a399b2a63b400f1e7f06f83fbcc0f1236f62f",
      "to": "0xb19fc72d5df88aa056cae1b56edabea442437dd7",
      "contractAddress": null
    }
  ],
  "libraries": [],
  "pending": [],
  "returns": {},
  "timestamp": 1779543811226,
  "chain": 196,
  "commit": null
}